:020000040800F2
:1000000000000220491A0008090700080B07000831
:100010000D0700080F070008110700080000000086
:1000200000000000000000000000000013070008AE
:10003000150700080000000017070008190700084E
:10004000991A0008991A0008991A0008991A0008C4
:10005000991A0008991A0008991A0008991A0008B4
:10006000991A0008991A0008991A0008991A0008A4
:10007000991A0008991A0008991A0008991A000894
:10008000991A0008991A0008991A0008991A000884
:10009000991A0008991A0008991A0008991A000874
:1000A000991A0008991A0008991A0008991A000864
:1000B000991A0008991A0008991A0008991A000854
:1000C000991A0008991A0008991A0008991A000844
:1000D000991A0008991A0008991A0008991A000834
:1000E000991A0008991A0008991A0008991A000824
:1000F000991A0008991A0008991A0008991A000814
:10010000991A0008991A0008991A0008991A000803
:10011000991A0008991A0008991A0008991A0008F3
:10012000991A0008991A0008991A0008991A0008E3
:10013000991A0008991A0008991A0008991A0008D3
:10014000991A0008991A0008991A0008991A0008C3
:10015000991A0008991A0008991A0008991A0008B3
:10016000991A0008991A0008991A0008991A0008A3
:10017000991A0008991A0008991A0008000000004E
:08018000991A0008991A000801
:1001880010B5054C237833B9044B13B10448AFF3C9
:1001980000800123237010BD0C0000200000000027
:1001A800F41A000808B5034B1BB103490348AFF321
:1001B800008008BD0000000010000020F41A0008AC
:1001C80053B94AB9002908BF00281CBF4FF0FF31B6
:1001D8004FF0FF3000F074B9ADF1080C6DE904CEB2
:1001E80000F006F8DDF804E0DDE9022304B070470A
:1001F8002DE9F047089D04468E46002B4DD18A42D2
:10020800944669D9B2FA82F252B101FA02F3C2F104
:10021800200120FA01F10CFA02FC41EA030E944095
:100228004FEA1C48210CBEFBF8F61FFA8CF708FBB6
:1002380016E341EA034306FB07F199420AD91CEB8E
:10024800030306F1FF3080F01F81994240F21C81C0
:10025800023E63445B1AA4B2B3FBF8F008FB103308
:1002680044EA034400FB07F7A7420AD91CEB04043D
:1002780000F1FF3380F00A81A74240F2078164440D
:10028800023840EA0640E41B00261DB1D440002392
:10029800C5E900433146BDE8F0878B4209D9002DF6
:1002A80000F0EF800026C5E9000130463146BDE880
:1002B800F087B3FA83F6002E4AD18B4202D38242EA
:1002C80000F2F980841A61EB030301209E46002D99
:1002D800E0D0C5E9004EDDE702B9FFDEB2FA82F2EE
:1002E800002A40F09280A1EB0C014FEA1C471FFA4C
:1002F8008CFE0126200CB1FBF7F307FB131140EA33
:1003080001410EFB03F0884208D91CEB010103F1FF
:10031800FF3802D2884200F2CB804346091AA4B2C1
:10032800B1FBF7F007FB101144EA01440EFB00FE95
:10033800A64508D91CEB040400F1FF3102D2A645FA
:1003480000F2BB800846A4EB0E0440EA03409CE799
:10035800C6F12007B34022FA07FC4CEA030C20FA46
:1003680007F401FA06F31C43F9404FEA1C4900FA66
:1003780006F3B1FBF9F8200C1FFA8CFE09FB1811E3
:1003880040EA014108FB0EF0884202FA06F20BD956
:100398001CEB010108F1FF3A80F08880884240F2A6
:1003A8008580A8F102086144091AA4B2B1FBF9F0EA
:1003B80009FB101144EA014100FB0EFE8E4508D9E5
:1003C8001CEB010100F1FF346CD28E456AD902386A
:1003D800614440EA0840A0FB0294A1EB0E01A1424F
:1003E800C846A64656D353D05DB1B3EB080261EBBD
:1003F8000E0101FA07F722FA06F3F1401F43C5E997
:10040800007100263146BDE8F087C2F12003D840CC
:100418000CFA02FC21FA03F3914001434FEA1C470E
:100428001FFA8CFEB3FBF7F007FB10360B0C43EA00
:10043800064300FB0EF69E4204FA02F408D91CEBB0
:10044800030300F1FF382FD29E422DD902386344AE
:100458009B1B89B2B3FBF7F607FB163341EA03414E
:1004680006FB0EF38B4208D91CEB010106F1FF389D
:1004780016D28B4214D9023E6144C91A46EA004694
:1004880038E72E46284605E70646E3E61846F8E626
:100498004B45A9D2B9EB020864EB0C0E0138A3E76F
:1004A8004646EAE7204694E74046D1E7D0467BE750
:1004B800023B614432E7304609E76444023842E7C8
:1004C800704700BF30B589B00024039404940594A4
:1004D800069407940194144B1A6B42F001021A63B4
:1004E8001A6B02F001020192019A02941A6B42F00F
:1004F80008021A631B6B03F008030293029B0B4D5F
:1005080022464FF40051284600F09CFE4FF4005359
:100518000393012304930594069403A9284600F045
:100528009FFD09B030BD00BF00380240000C0240FA
:1005380072B6FEE708B50948094B0360002343601B
:100548007F228260FF22C26003614361836100F001
:100558007CF900B908BDFFF7EBFF00BF28000020B9
:100568000028004008B50B480B4B0360002343608C
:100578008360C360036143614FF400728261036268
:10058800436283620A23C36201F014F800B908BD0C
:10059800FFF7CEFF480000200030014000B599B0B9
:1005A800302200210DEB020001F098FA0023079396
:1005B800089309930A930B93039304930593069363
:1005C80001931F4A116C41F080511164126C02F0C2
:1005D80080520192019A02931A4A116841F48041AB
:1005E8001160126802F480420292029A0A220C9266
:1005F80001220F9210211091119212930CA800F071
:1006080087F9B0B90F2307930021089109910A913E
:100618000B9107A800F0CAFB68B9022303934FF4B3
:100628000073069303A800F071FC30B919B05DF8A7
:1006380004FBFFF77DFFFFF77BFFFFF779FF00BFA4
:10064800003802400070004070B5B4B000F08EFE73
:10065800FFF7A4FFFFF736FFFFF76CFFFFF782FFF6
:1006680000251B95602229461CA801F037FA214C69
:100678000DF1380C94E80F00ACE807008CF8003056
:100688002526324629460DF1450001F027FA0DF1DD
:10069800040C343494E80F00ACE807008CF8003000
:1006A800324629460DF1110001F018FA124C4FF4A8
:1006B8000051204600F0CCFD4FF4FA7000F082FEA5
:1006C8004FF40051204600F0C3FD4FF4FA7000F0DB
:1006D80079FE4FF40051204600F0BAFD4FF4FA704D
:1006E80000F070FE41F288330C221BA9034801F088
:1006F800DCF8F7E70C1B0008000C0240480000205B
:10070800FEE7FEE7FEE7FEE7FEE770477047704743
:1007180008B500F045FE08BD82B0002100910B4BE2
:100728005A6C42F480425A645A6C02F48042009235
:10073800009A01911A6C42F080521A641B6C03F003
:1007480080530193019B02B0704700BF00380240FC
:100758000268044B9A4200D07047034B0122C3F849
:100768003C2EF9E7002800400000474200B589B058
:100778000023039304930593069307930268154B8C
:100788009A4202D009B05DF804FB0021019103F5FB
:1007980084335A6C42F480525A645A6C02F4805280
:1007A8000192019A02911A6B42F001021A631B6BC3
:1007B80003F001030293029BF023039302230493A3
:1007C800032306930523079303A9034800F048FC75
:1007D800D8E700BF003001400000024038B50446A9
:1007E8000268D36823F0A003D36000F0E5FD054656
:1007F8002368DB6813F0200F07D100F0DDFD401BF4
:10080800B0F57A7FF4D9032000E0002038BD38B570
:100818000368DA6812F0400F01D0002038BD0446A2
:100828004FF0FF32DA6000F0C7FD05462368DB6849
:1008380013F0400F07D100F0BFFD431BB3F57A7FDB
:10084800F4D90320EAE70020E8E738B500285CD0AF
:100858000446437F002B41D0022363772368CA22D2
:100868005A62236853225A622046FFF7D0FF054692
:10087800002837D12268936823F4E00323F040036B
:10088800936021688A686368206903436069034349
:1008980013438B602368E2681A6122681369A168B0
:1008A80043EA014313612268D36823F08003D360CD
:1008B80023689B6813F0200F1BD02268136C23F465
:1008C800802313642268136CA1690B4313642368A3
:1008D800FF225A6201236377284638BD0377FFF762
:1008E80037FFB9E72368FF225A620423637701259B
:1008F800F2E72046FFF772FF0028DED02368FF22C8
:100908005A62042363770125E6E70125E4E700003E
:10091800002800F0E08170B582B00446036813F047
:10092800010F3BD09F4B9B6803F00C03042B2CD08A
:100938009C4B9B6803F00C03082B21D06368B3F52C
:10094800803F4FD0B3F5A02F52D0964B1A6822F4AF
:1009580080321A601A6822F480221A606368002BB9
:1009680050D000F029FD05468E4B1B6813F4003F5C
:1009780014D100F021FD401B6428F5D90320B1E112
:10098800884B5B6813F4800FD8D0864B1B6813F430
:10099800003F03D06368002B00F09F81236813F0A9
:1009A800020F54D07F4B9B6813F00C0F3ED07D4B49
:1009B8009B6803F00C03082B33D0E368002B68D046
:1009C800794B01221A6000F0F7FC0546754B1B684D
:1009D80013F0020F54D100F0EFFC401B0228F5D9A8
:1009E80003207FE16F4A136843F480331360B5E74F
:1009F8006C4B1A6842F480221A601A6842F48032FA
:100A08001A60ABE700F0D8FC0546664B1B6813F488
:100A1800003FC3D000F0D0FC401B6428F5D9032068
:100A280060E1604B5B6813F4800FC6D15D4B1B68B7
:100A380013F0020F03D0E368012B40F05081594AAC
:100A4800136823F0F803216943EAC103136023689C
:100A580013F0080F42D063696BB3534B0122C3F8FC
:100A6800802E00F0A9FC05464E4B5B6F13F0020F79
:100A780034D100F0A1FC401B0228F5D9032031E154
:100A8800484A136823F0F803216943EAC103136055
:100A9800DDE7454B00221A6000F08EFC0546414B0D
:100AA8001B6813F0020FD2D000F086FC401B02280E
:100AB800F5D9032016E13C4B0022C3F8802E00F044
:100AC8007BFC0546374B5B6F13F0020F06D000F036
:100AD80073FC401B0228F5D9032003E1236813F0B7
:100AE800040F77D02F4B1B6C13F0805F33D100239A
:100AF80001932C4B1A6C42F080521A641B6C03F061
:100B080080530193019B0125284B1B6813F4807FB8
:100B180023D0A368012B34D0052B38D0214B1A6F72
:100B280022F001021A671A6F22F004021A67A368FA
:100B3800002B3DD000F040FC06461A4B1B6F13F00B
:100B4800020F46D100F038FC801B41F288339842EE
:100B5800F3D90320C6E00025D6E7144A136843F406
:100B68008073136000F028FC0646104B1B6813F4D2
:100B7800807FCED100F020FC801B0228F5D903200D
:100B8800B0E0084A136F43F001031367CFE7054B42
:100B98001A6F42F004021A671A6F42F001021A67CC
:100BA800C5E700BF0038024000004742007000401F
:100BB80000F002FC0646524B1B6F13F0020F08D0E0
:100BC80000F0FAFB801B41F288339842F3D90320E6
:100BD80088E0EDB9A369002B00F08380484A926849
:100BE80002F00C02082A51D0022B17D0454B0022E4
:100BF8001A6600F0E1FB0446414B1B6813F0007FC6
:100C080042D000F0D9FB001B0228F5D9032069E087
:100C18003B4A136C23F080531364DBE7394B002203
:100C28001A6600F0C9FB0546354B1B6813F0007FB8
:100C380006D000F0C1FB401B0228F5D9032051E083
:100C4800E369226A1343626A43EA8213A26A52087A
:100C5800013A43EA0243E26A43EA0263284A5360DC
:100C6800284B01221A6600F0A7FB0446244B1B6898
:100C780013F0007F06D100F09FFB001B0228F5D976
:100C880003202FE000202DE000202BE0012B2BD0AB
:100C98001B4B5B6803F48001E269914226D103F0A3
:100CA8003F02216A8A4223D1616A47F6C0721A401C
:100CB800B2EB811F1ED103F44031A26A5208013AF7
:100CC800B1EB024F18D103F07063E26AB3EB026F25
:100CD80014D1002006E001207047012002E0012025
:100CE80000E0002002B070BD0120FBE70120F9E719
:100CF8000120F7E70120F5E70120F3E70120F1E7FC
:100D0800003802400000474208B5254B9B6803F0B5
:100D18000C03042B3FD0082B3FD1214B5A6802F01B
:100D28003F025B6813F4800F12D01D4B5968C1F362
:100D380088111C480023A1FB0001FFF741FA184B5A
:100D48005B68C3F3014301335B00B0FBF3F025E0BC
:100D5800134B5968C1F3881C4FEA4C11B1EB0C00D6
:100D68006EEB0E0E4FEA8E1343EA90638101091A67
:100D780063EB0E03DB0043EA5173C90011EB0C0C63
:100D880043F10003990200234FEA8C2041EA9C5169
:100D9800FFF716FAD3E7034800E0034808BD00BF91
:100DA8000038024040787D010024F400002800F05B
:100DB8009B8070B50D4604464F4B1B6803F0070334
:100DC8008B4208D2CBB24C4A1370136803F0070366
:100DD8008B4240F08B80236813F0020F17D013F07A
:100DE800040F04D0454A936843F4E05393602368A2
:100DF80013F0080F04D0414A936843F460439360AA
:100E08003E4A936823F0F003A1680B43936023687C
:100E180013F0010F32D06368012B21D09A1E012AEA
:100E280025D9364A126812F0020F61D033498A6810
:100E380022F0030213438B6000F0BEFA06462F4BE4
:100E48009B6803F00C036268B3EB820F16D000F0C6
:100E5800B3FA801B41F288339842F0D9032042E06C
:100E6800264A126812F4003FE0D101203BE0234AF1
:100E7800126812F0007FD9D1012034E01E4B1B68A4
:100E880003F00703AB4207D9EAB21B4B1A701B6881
:100E980003F00703AB422DD1236813F0040F06D0EB
:100EA800164A936823F4E053E1680B439360236880
:100EB80013F0080F07D0114A936823F4604321699F
:100EC80043EAC1039360FFF71FFF0C4B9B68C3F312
:100ED80003130B4AD35CD8400A4B18600A4B1868B6
:100EE80000F01EFA002070BD012070470120FAE7CB
:100EF8000120F8E70120F6E7003C024000380240F4
:100F0800741B0008080000200400002030B583B0DE
:100F18000446036813F0050F06D1236813F0020F87
:100F28002ED1002003B030BD4A4B00229A6600F053
:100F380043FA0546484B1B6813F0006F06D000F0D3
:100F48003BFA431B022BF5D90320EBE76268A36841
:100F58001B0743EA8213404AC2F884303D4B012202
:100F68009A6600F029FA05463B4B1B6813F0006FA0
:100F7800D3D100F021FA431B022BF5D90320D1E786
:100F880000230193344B1A6C42F080521A641B6C94
:100F980003F080530193019B304A136843F4807334
:100FA800136000F009FA05462C4B1B6813F4807F88
:100FB80006D100F001FA431B022BF5D90320B1E753
:100FC800254B1B6F13F4407314D0E26802F440728F
:100FD8009A420FD0204B1A6F22F440721D4901200B
:100FE800C1F8400E0020C1F8400E1A671B6F13F0BD
:100FF800010F13D1E36803F44072B2F5407F1ED0AD
:10100800154A936823F4F813936013490B6FE26849
:10101800C2F30B0213430B67002083E700F0CCF9FF
:1010280005460D4B1B6F13F0020FE3D100F0C4F916
:10103800401B41F288339842F3D9032072E70649EE
:101048008A6822F4F81223F0704323F440731343A0
:101058008B60DAE700004742003802400070004029
:1010680000230F2B00F2E48070B582B060E0856841
:101078005E000324B44025EA0405CC68B4402C4340
:101088008460456825EA02054C68C4F300129A405A
:101098002A4342605AE0DC08083450F8246003F020
:1010A800070295000F22AA4026EA020E0A69AA4002
:1010B80042EA0E0240F824205CE0072200E0002209
:1010C80002FA0EF22A4302345A4D45F824205A4AAD
:1010D80014686FEA0C0224EA0C054E6816F4803F87
:1010E80001D04CEA0405544C2560646802EA040502
:1010F8004E6816F4003F01D04CEA04054E4C65607A
:10110800A46802EA04054E6816F4801F01D04CEA70
:101118000405494CA560E46822404D6815F4001F99
:1011280001D04CEA0402444CE26001330F2B7DD815
:1011380001229A400C6804EA020C32EA0404F4D151
:101148004C6804F00304013C012C90D94A6802F071
:101158000302032A09D0C4685D000322AA4024EAD6
:1011680002048A68AA402243C2604A6802F0030265
:10117800022A90D004684FEA430E032202FA0EF2C4
:1011880024EA02044A6802F0030202FA0EF2224339
:1011980002604A6812F0805FC7D000220192274A95
:1011A800546C44F480445464526C02F480420192BA
:1011B800019A9C08A51C1F4A52F8255003F0030207
:1011C8004FEA820E0F2202FA0EF225EA02051C4AA5
:1011D80090423FF474AF02F5806290421AD002F553
:1011E8008062904218D002F58062904216D002F5D3
:1011F8008062904214D002F58062904212D002F5CB
:101208008062904210D002F5806290423FF455AF60
:10121800082255E7012253E7022251E703224FE74C
:1012280004224DE705224BE7062249E702B070BDCC
:10123800704700BF00380140003C014000380240C0
:10124800000002400AB1816170470904816170475A
:10125800436901EA030221EA030141EA024181618B
:1012680070470000074AD36823F4E0631B041B0C93
:10127800000200F4E060034343F0BF6343F400332B
:10128800D360704700ED00E000B5194BDB68C3F38D
:101298000223C3F1070CBCF1040F28BF4FF0040C64
:1012A80003F1040EBEF1060F18D9033B4FF0FF3EC1
:1012B8000EFA0CFC21EA0C0199400EFA03F322EA1B
:1012C8000303194300280BDB0901C9B200F1604090
:1012D80000F5614080F800135DF804FB0023E5E7A2
:1012E80000F00F000901C9B2024B1954F4E700BF1E
:1012F80000ED00E014ED00E00138B0F1807F0BD282
:101308004FF0E0235861054AF02182F823100020AD
:10131800986107221A6170470120704700ED00E0CC
:1013280010B504460E4B18784FF47A73B3FBF0F3FC
:101338000C4A1068B0FBF3F0FFF7DEFF68B90F2C1A
:1013480001D901200AE0002221464FF0FF30FFF7C3
:101358009BFF054B1C60002000E0012010BD00BF72
:1013680000000020080000200400002008B50B4BF6
:101378001A6842F400721A601A6842F480621A60AD
:101388001A6842F480721A600320FFF76BFF00208E
:10139800FFF7C6FFFFF7C0F9002008BD003C024078
:1013A800034A1168034B1B780B441360704700BF56
:1013B800A000002000000020014B1868704700BF03
:1013C800A000002038B50446FFF7F6FF0546B4F143
:1013D800FF3F02D0044B1B781C44FFF7EDFF401B76
:1013E800A042FAD338BD00BF000000202DE9F04725
:1013F80082B00546884617461E46FFF7DDFF0A9B62
:101408001B1A03EB0609FFF7D7FF82462B4B1B6815
:10141800C3F3CB3309FB03F301932B689C6838EAC9
:1014280004030CBF4FF0010C4FF0000CBC4540D03A
:10143800B6F1FF3FF1D0FFF7BFFFA0EB0A00484528
:101448000AD2B9F1000F07D0019A02B14A46019BAE
:10145800013B01939146E0E72A68536823F0E003D3
:1014680053606B68B3F5827F0BD0AB6AB3F5005F4E
:1014780014D0012385F85130002385F8503003201B
:1014880018E0AB68B3F5004F02D0B3F5806FECD12C
:101498002A68136823F040031360E6E72A68136894
:1014A80023F4005313602A68136843F4005313604D
:1014B800DFE7002002B0BDE8F08700BF0800002089
:1014C80010B584B00446164B1868164BA3FB0030C1
:1014D800400D4FF47A7303FB00F003906368B3F593
:1014E800827F0BD0039BBBB1039B013B0393236813
:1014F8009B6813F0800FF5D100200EE000920B4698
:10150800002280212046FFF771FF30B1636D43F060
:1015180020036365032000E0002004B010BD00BF75
:1015280008000020819F5E1610B582B004460B4665
:101538004168B1F5827F14D06168B1F5827F2AD104
:10154800A168B1F5806F19D0009200228021204651
:10155800FFF74CFF30B3636D43F02003636503204E
:1015680020E08168B1F5004F02D0B1F5806FE3D17A
:101578002068016821F040010160DDE70092002247
:1015880001212046FFF732FF60B1636D43F020036D
:101598006365032006E00092002201212046FFF740
:1015A80025FF08B902B010BD636D43F020036365E1
:1015B8000320F7E700285AD010B50446436A33B928
:1015C8004368B3F5827F05D00023C36102E000239E
:1015D800036143610023A36294F85130002B40D08B
:1015E800022384F851302268136823F04003136003
:1015F800636803F48273A26802F404421343E26846
:1016080002F400621343226902F002021343626982
:1016180002F001021343A26902F400721343E26963
:1016280002F038021343226A02F080021343A26ACE
:1016380002F40052216813430B60638B03F0040328
:10164800626A02F01002216813434B602268D36972
:1016580023F40063D36100206065012384F85130CE
:1016680010BD84F850302046FFF780F8B8E7012015
:1016780070472DE9F04383B01F460A9D90F850301B
:10168800012B00F01081044688469146012380F81A
:101698005030FFF791FE064694F85130DBB262688D
:1016A800012B0AD0B2F5827F40F0E380A268002ABD
:1016B80040F0E980042B40F0E880B8F1000F00F01A
:1016C800E680B9F1000F00F0E480002F00F0E3801D
:1016D80094F85130DBB2042B02D0052384F8513042
:1016E80000236365C4F83890E787A787C4F830807B
:1016F800E786A7862364636423681A6812F0400F9C
:1017080003D11A6842F040021A60E368B3F5006F2B
:1017180011D063680BB1012F0BD1226B23681278AB
:101728001A73236B01332363E38E9BB2013B9BB295
:10173800E38601276BE063680BB1012F0BD1226BA5
:1017480023681288DA60236B02332363E38E9BB22B
:10175800013B9BB2E38601271CE023689A6812F0DC
:10176800010F0ED0E28F92B25AB1DA68A36B1A80D9
:10177800A36B0233A363E38F9BB2013B9BB2E38766
:101788000127FFF719FE801BA84203D3B5F1FF3FDD
:1017980040F08380E38E9BB21BB9E38F9BB2002B92
:1017A80053D023689A6812F0020FD6D0E28E92B214
:1017B800002AD2D0002FD0D0226B1288DA60236B97
:1017C80002332363E38E9BB2013B9BB2E38600277F
:1017D800C3E723689A6812F0010F0ED0E28F92B225
:1017E8005AB1DA68A36B1A70A36B0133A363E38F52
:1017F8009BB2013B9BB2E3870127FFF7DDFD831B0B
:10180800AB4202D3B5F1FF3F49D1002D49D0E38E59
:101818009BB213B9E38F9BB2BBB123689A6812F0ED
:10182800020FD6D0E28E92B2002AD2D0002FD0D0AA
:10183800226B12781A73236B01332363E38E9BB2F6
:10184800013B9BB2E3860027C3E732462946204680
:10185800FFF736FE48B9A36863B901932368DA68CD
:1018680001929B680193019B04E02023636501209A
:1018780000E00220012384F85130002384F850301E
:1018880003B0BDE8F0830220F4E70220F2E701206C
:10189800F0E70120EEE70120ECE70320EAE7032068
:1018A800E8E70320E6E70220EAE72DE9F04383B002
:1018B8000446884691461D464068B0F5827F38D078
:1018C80094F85030012B00F0AE80012384F850309A
:1018D800FFF772FD074694F85160F6B2012E40F00A
:1018E8008F80B8F1000F00F08C80B9F1000F00F084
:1018F8008880042384F8513000236365C4F8388055
:10190800A4F83C90A4F83E902363A386E38623645E
:101918006364A368B3F5004F19D023681A6812F0FE
:10192800400F03D11A6842F040021A60E3681BB303
:1019380041E0A368002BC3D1042384F851300095FB
:1019480013460A462046FFF794FE06465FE02268E3
:10195800136823F0400313602268136823F480435C
:101968001360DAE7FFF728FDC01BA84202D3B5F1E0
:10197800FF3F50D1002D50D0E38F9BB2002B33D0C6
:1019880023689A6812F0010FECD0A26B1B7B1370CE
:10199800A36B0133A363E38F9BB2013B9BB2E38745
:1019A800EAE7FFF709FDC01BA84202D3B5F1FF3FE4
:1019B80035D1002D35D0E38F9BB2ABB123689A683F
:1019C80012F0010FEDD0DA68A36B1A80A36B023313
:1019D800A363B4F83EC01FFA8CFC0CF1FF3C1FFA5D
:1019E8008CFCA4F83EC0E6E73A4629462046FFF7B5
:1019F8009BFD08B120236365636D13B9002600E0E1
:101A08000226012384F85130002384F850303046F0
:101A180003B0BDE8F0830326F3E70326F1E70326C6
:101A2800EFE70326EDE70226F1E70000034AD2F8C4
:101A3800883043F47003C2F88830704700ED00E046
:101A4800DFF834D00D480E490E4A002302E0D4587E
:101A5800C4500433C4188C42F9D30B4A0B4C0023EE
:101A680001E013600432A242FBD3FFF7DFFF00F06E
:101A780011F8FEF7E9FD7047000002200000002081
:101A88000C000020941B00080C000020A40000207B
:101A9800FEE7000070B50D4D0D4C641BA410002628
:101AA800A64209D10B4D0C4C00F020F8641BA41081
:101AB8000026A64205D170BD55F8043B984701366B
:101AC800EEE755F8043B98470136F2E78C1B00080F
:101AD8008C1B00088C1B0008901B0008024403465E
:101AE800934200D1704703F8011BF9E7F8B500BF2E
:101AF800F8BC08BC9E467047F8B500BFF8BC08BCE7
:041B08009E4670473E
:101B0C0048656C6C6F20576F726C6421000000008C
:101B1C0000000000000000000000000000000000B9
:101B2C0000000000000000000000000000000000A9
:101B3C0000000000282828282828282828282828B9
:101B4C000000000000000000000000000000000089
:101B5C000000000000000000000000000000000079
:101B6C000000000000000000000000000000000069
:081B7C00010203040607080939
:081B840074E6FF7F0100000080
:041B8C00AD0100089F
:041B900089010008BF
:0C1B940001000000100000000024F4001C
:0400000508001A498C
:00000001FF
