:020000040800F2
:10000000000002209519000865070008670700082E
:10001000690700086B0700086D0700080000000072
:100020000000000000000000000000006F07000852
:10003000710700080000000073070008750700083A
:10004000E5190008E5190008E5190008E519000898
:10005000E5190008E5190008E5190008E519000888
:10006000E5190008E5190008E5190008E519000878
:10007000E5190008E5190008E5190008E519000868
:10008000E5190008E5190008E5190008E519000858
:10009000E5190008E5190008E5190008E519000848
:1000A000E5190008E5190008E5190008E519000838
:1000B000E5190008E5190008E5190008E519000828
:1000C000E5190008E5190008E5190008E519000818
:1000D000E5190008E5190008E5190008E519000808
:1000E000E5190008E5190008E5190008E5190008F8
:1000F000E5190008E5190008E5190008E5190008E8
:10010000E5190008E5190008E5190008E5190008D7
:10011000E5190008E5190008E5190008E5190008C7
:10012000E5190008E5190008E5190008E5190008B7
:10013000E5190008E5190008E5190008E5190008A7
:10014000E5190008E5190008E5190008E519000897
:10015000E5190008E5190008E5190008E519000887
:10016000E5190008E5190008E5190008E519000877
:10017000E5190008E5190008E5190008000000006D
:08018000E5190008E51900086B
:1001880010B5054C237833B9044B13B10448AFF3C9
:1001980000800123237010BD0C0000200000000027
:1001A800401A000808B5034B1BB103490348AFF3D5
:1001B800008008BD0000000010000020401A000860
:1001C80053B94AB9002908BF00281CBF4FF0FF31B6
:1001D8004FF0FF3000F074B9ADF1080C6DE904CEB2
:1001E80000F006F8DDF804E0DDE9022304B070470A
:1001F8002DE9F047089D04468E46002B4DD18A42D2
:10020800944669D9B2FA82F252B101FA02F3C2F104
:10021800200120FA01F10CFA02FC41EA030E944095
:100228004FEA1C48210CBEFBF8F61FFA8CF708FBB6
:1002380016E341EA034306FB07F199420AD91CEB8E
:10024800030306F1FF3080F01F81994240F21C81C0
:10025800023E63445B1AA4B2B3FBF8F008FB103308
:1002680044EA034400FB07F7A7420AD91CEB04043D
:1002780000F1FF3380F00A81A74240F2078164440D
:10028800023840EA0640E41B00261DB1D440002392
:10029800C5E900433146BDE8F0878B4209D9002DF6
:1002A80000F0EF800026C5E9000130463146BDE880
:1002B800F087B3FA83F6002E4AD18B4202D38242EA
:1002C80000F2F980841A61EB030301209E46002D99
:1002D800E0D0C5E9004EDDE702B9FFDEB2FA82F2EE
:1002E800002A40F09280A1EB0C014FEA1C471FFA4C
:1002F8008CFE0126200CB1FBF7F307FB131140EA33
:1003080001410EFB03F0884208D91CEB010103F1FF
:10031800FF3802D2884200F2CB804346091AA4B2C1
:10032800B1FBF7F007FB101144EA01440EFB00FE95
:10033800A64508D91CEB040400F1FF3102D2A645FA
:1003480000F2BB800846A4EB0E0440EA03409CE799
:10035800C6F12007B34022FA07FC4CEA030C20FA46
:1003680007F401FA06F31C43F9404FEA1C4900FA66
:1003780006F3B1FBF9F8200C1FFA8CFE09FB1811E3
:1003880040EA014108FB0EF0884202FA06F20BD956
:100398001CEB010108F1FF3A80F08880884240F2A6
:1003A8008580A8F102086144091AA4B2B1FBF9F0EA
:1003B80009FB101144EA014100FB0EFE8E4508D9E5
:1003C8001CEB010100F1FF346CD28E456AD902386A
:1003D800614440EA0840A0FB0294A1EB0E01A1424F
:1003E800C846A64656D353D05DB1B3EB080261EBBD
:1003F8000E0101FA07F722FA06F3F1401F43C5E997
:10040800007100263146BDE8F087C2F12003D840CC
:100418000CFA02FC21FA03F3914001434FEA1C470E
:100428001FFA8CFEB3FBF7F007FB10360B0C43EA00
:10043800064300FB0EF69E4204FA02F408D91CEBB0
:10044800030300F1FF382FD29E422DD902386344AE
:100458009B1B89B2B3FBF7F607FB163341EA03414E
:1004680006FB0EF38B4208D91CEB010106F1FF389D
:1004780016D28B4214D9023E6144C91A46EA004694
:1004880038E72E46284605E70646E3E61846F8E626
:100498004B45A9D2B9EB020864EB0C0E0138A3E76F
:1004A8004646EAE7204694E74046D1E7D0467BE750
:1004B800023B614432E7304609E76444023842E7C8
:1004C800704700BF30B589B00024039404940594A4
:1004D800069407940094194B1A6B42F001021A63B0
:1004E8001A6B02F001020092009A01941A6B42F012
:1004F80008021A631A6B02F008020192019A029428
:100508001A6B42F002021A631B6B03F00203029398
:10051800029B0B4D22464FF40051284600F020FF65
:100528004FF400530393012304930594069403A9FD
:10053800284600F023FE09B030BD00BF0038024055
:10054800000C024072B6FEE708B50948094B036083
:10055800002343607F228260FF22C26003614361FF
:10056800836100F0DAF900B908BDFFF7EBFF00BFBF
:100578007C0000200028004008B50A480A4B0360A8
:100588000A4B436000238360C3604FF480420261DA
:1005980043618361C361036200F0C0FF00B908BD15
:1005A800FFF7D0FF2800002000540040A08601007B
:1005B80008B50A480A4B03604FF4165343600023FA
:1005C8008360C36003610C2242618361C36101F0EF
:1005D80041F900B908BDFFF7B5FF00BF9C00002036
:1005E8000044004000B599B0302200210DEB020014
:1005F80001F01AFA00230793089309930A930B93BF
:10060800039304930593069301931F4A116C41F0D9
:1006180080511164126C02F080520192019A029387
:100628001A4A116841F480411160126802F480424C
:100638000292029A0A220C9201220F921021109122
:10064800119212930CA800F0CBF9B0B90F230793BD
:100658000021089109910A910B9107A800F00EFC5E
:1006680068B9022303934FF40073069303A800F0BC
:10067800DBFC30B919B05DF804FBFFF763FFFFF747
:1006880061FFFFF75FFF00BF0038024000700040C5
:1006980070B59EB000F0F8FEFFF7A4FFFFF712FF59
:1006A800FFF752FFFFF768FFFFF782FF00251B9552
:1006B8001C951D95264C0DF1380C94E80F00ACE8FC
:1006C80007008CF800302526324629460DF14500F2
:1006D80001F0AAF90DF1040C343494E80F00ACE8E9
:1006E80007008CF80030324629460DF1110001F060
:1006F8009BF9184C4FF40051204600F037FE4FF498
:10070800FA7000F0EDFE4FF40051204600F02EFE86
:100718004FF4FA7000F0E4FE4FF40051204600F068
:1007280025FE4FF4FA7000F0DBFE0FE04FF0FF33C8
:1007380032220EA9084801F0BCF80A2000F0D0FEC9
:100748000134632CF2DD642000F0CAFE0024F8E7CF
:10075800581A0008000C02409C000020FEE7FEE743
:10076800FEE7FEE7FEE770477047704708B500F000
:10077800A5FE08BD82B0002100910B4B5A6C42F4D3
:1007880080425A645A6C02F480420092009A0191A5
:100798001A6C42F080521A641B6C03F08053019368
:1007A800019B02B0704700BF0038024030B589B0E5
:1007B8000023039304930593069307930268154B4C
:1007C8009A4201D009B030BD00250195124C236B27
:1007D80043F002032363236B03F002030193019B9D
:1007E800C023039312230493012305930323069341
:1007F8000423079303A9094800F0C0FC0295236C61
:1008080043F400132364236C03F400130293029B44
:10081800D8E700BF005400400038024000040240FE
:100828000268044B9A4200D07047034B0122C3F878
:100838003C2EF9E7002800400000474200B589B087
:100848000023039304930593069307930268154BBB
:100858009A4202D009B05DF804FB0021019103F52A
:10086800FA331A6C42F400321A641A6C02F4003239
:100878000192019A02911A6B42F001021A631B6BF2
:1008880003F001030293029B0C23039302230493B6
:10089800032306930723079303A9034800F06EFC7C
:1008A800D8E700BF004400400000024038B50446C5
:1008B8000268D36823F0A003D36000F00BFE05465E
:1008C8002368DB6813F0200F07D100F003FE401BFC
:1008D800B0F57A7FF4D9032000E0002038BD38B5A0
:1008E8000368DA6812F0400F01D0002038BD0446D2
:1008F8004FF0FF32DA6000F0EDFD05462368DB6853
:1009080013F0400F07D100F0E5FD431BB3F57A7FE4
:10091800F4D90320EAE70020E8E738B500285CD0DE
:100928000446437F002B41D0022363772368CA2201
:100938005A62236853225A622046FFF7D0FF0546C1
:10094800002837D12268936823F4E00323F040039A
:10095800936021688A686368206903436069034378
:1009680013438B602368E2681A6122681369A168DF
:1009780043EA014313612268D36823F08003D360FC
:1009880023689B6813F0200F1BD02268136C23F494
:10099800802313642268136CA1690B4313642368D2
:1009A800FF225A6201236377284638BD0377FFF791
:1009B80037FFB9E72368FF225A62042363770125CA
:1009C800F2E72046FFF772FF0028DED02368FF22F7
:1009D8005A62042363770125E6E70125E4E700006E
:1009E800002800F0E08170B582B00446036813F077
:1009F800010F3BD09F4B9B6803F00C03042B2CD0BA
:100A08009C4B9B6803F00C03082B21D06368B3F55B
:100A1800803F4FD0B3F5A02F52D0964B1A6822F4DE
:100A280080321A601A6822F480221A606368002BE8
:100A380050D000F04FFD05468E4B1B6813F4003F65
:100A480014D100F047FD401B6428F5D90320B1E11B
:100A5800884B5B6813F4800FD8D0864B1B6813F45F
:100A6800003F03D06368002B00F09F81236813F0D8
:100A7800020F54D07F4B9B6813F00C0F3ED07D4B78
:100A88009B6803F00C03082B33D0E368002B68D075
:100A9800794B01221A6000F01DFD0546754B1B6855
:100AA80013F0020F54D100F015FD401B0228F5D9B0
:100AB80003207FE16F4A136843F480331360B5E77E
:100AC8006C4B1A6842F480221A601A6842F4803229
:100AD8001A60ABE700F0FEFC0546664B1B6813F492
:100AE800003FC3D000F0F6FC401B6428F5D9032072
:100AF80060E1604B5B6813F4800FC6D15D4B1B68E7
:100B080013F0020F03D0E368012B40F05081594ADB
:100B1800136823F0F803216943EAC10313602368CB
:100B280013F0080F42D063696BB3534B0122C3F82B
:100B3800802E00F0CFFC05464E4B5B6F13F0020F82
:100B480034D100F0C7FC401B0228F5D9032031E15D
:100B5800484A136823F0F803216943EAC103136084
:100B6800DDE7454B00221A6000F0B4FC0546414B16
:100B78001B6813F0020FD2D000F0ACFC401B022817
:100B8800F5D9032016E13C4B0022C3F8802E00F073
:100B9800A1FC0546374B5B6F13F0020F06D000F03F
:100BA80099FC401B0228F5D9032003E1236813F0C0
:100BB800040F77D02F4B1B6C13F0805F33D10023C9
:100BC80001932C4B1A6C42F080521A641B6C03F090
:100BD80080530193019B0125284B1B6813F4807FE8
:100BE80023D0A368012B34D0052B38D0214B1A6FA2
:100BF80022F001021A671A6F22F004021A67A3682A
:100C0800002B3DD000F066FC06461A4B1B6F13F014
:100C1800020F46D100F05EFC801B41F288339842F7
:100C2800F3D90320C6E00025D6E7144A136843F435
:100C38008073136000F04EFC0646104B1B6813F4DB
:100C4800807FCED100F046FC801B0228F5D9032016
:100C5800B0E0084A136F43F001031367CFE7054B71
:100C68001A6F42F004021A671A6F42F001021A67FB
:100C7800C5E700BF0038024000004742007000404E
:100C880000F028FC0646524B1B6F13F0020F08D0E9
:100C980000F020FC801B41F288339842F3D90320EE
:100CA80088E0EDB9A369002B00F08380484A926878
:100CB80002F00C02082A51D0022B17D0454B002213
:100CC8001A6600F007FC0446414B1B6813F0007FCE
:100CD80042D000F0FFFB001B0228F5D9032069E091
:100CE8003B4A136C23F080531364DBE7394B002233
:100CF8001A6600F0EFFB0546354B1B6813F0007FC2
:100D080006D000F0E7FB401B0228F5D9032051E08C
:100D1800E369226A1343626A43EA8213A26A5208A9
:100D2800013A43EA0243E26A43EA0263284A53600B
:100D3800284B01221A6600F0CDFB0446244B1B68A1
:100D480013F0007F06D100F0C5FB001B0228F5D97F
:100D580003202FE000202DE000202BE0012B2BD0DA
:100D68001B4B5B6803F48001E269914226D103F0D2
:100D78003F02216A8A4223D1616A47F6C0721A404B
:100D8800B2EB811F1ED103F44031A26A5208013A26
:100D9800B1EB024F18D103F07063E26AB3EB026F54
:100DA80014D1002006E001207047012002E0012054
:100DB80000E0002002B070BD0120FBE70120F9E748
:100DC8000120F7E70120F5E70120F3E70120F1E72B
:100DD800003802400000474208B5254B9B6803F0E5
:100DE8000C03042B3FD0082B3FD1214B5A6802F04B
:100DF8003F025B6813F4800F12D01D4B5968C1F392
:100E080088111C480023A1FB0001FFF7D9F9184BF2
:100E18005B68C3F3014301335B00B0FBF3F025E0EB
:100E2800134B5968C1F3881C4FEA4C11B1EB0C0005
:100E38006EEB0E0E4FEA8E1343EA90638101091A96
:100E480063EB0E03DB0043EA5173C90011EB0C0C92
:100E580043F10003990200234FEA8C2041EA9C5198
:100E6800FFF7AEF9D3E7034800E0034808BD00BF29
:100E78000038024040787D010024F400002800F08A
:100E88009B8070B50D4604464F4B1B6803F0070363
:100E98008B4208D2CBB24C4A1370136803F0070395
:100EA8008B4240F08B80236813F0020F17D013F0A9
:100EB800040F04D0454A936843F4E05393602368D1
:100EC80013F0080F04D0414A936843F460439360D9
:100ED8003E4A936823F0F003A1680B4393602368AC
:100EE80013F0010F32D06368012B21D09A1E012A1A
:100EF80025D9364A126812F0020F61D033498A6840
:100F080022F0030213438B6000F0E4FA06462F4BED
:100F18009B6803F00C036268B3EB820F16D000F0F5
:100F2800D9FA801B41F288339842F0D9032042E075
:100F3800264A126812F4003FE0D101203BE0234A20
:100F4800126812F0007FD9D1012034E01E4B1B68D3
:100F580003F00703AB4207D9EAB21B4B1A701B68B0
:100F680003F00703AB422DD1236813F0040F06D01A
:100F7800164A936823F4E053E1680B4393602368AF
:100F880013F0080F07D0114A936823F460432169CE
:100F980043EAC1039360FFF71FFF0C4B9B68C3F341
:100FA80003130B4AD35CD8400A4B18600A4B1868E5
:100FB80000F044FA002070BD012070470120FAE7D4
:100FC8000120F8E70120F6E7003C02400038024023
:100FD800C01A00080800002004000020014B18680F
:100FE800704700BF0800002008B5FFF7F7FF044B63
:100FF8009B68C3F38223034AD35CD84008BD00BF73
:1010080000380240D01A000808B5FFF7E7FF044B84
:101018009B68C3F34233034AD35CD84008BD00BF82
:1010280000380240D01A000830B583B0044603687F
:1010380013F0050F06D1236813F0020F2ED10020FC
:1010480003B030BD4A4B00229A6600F043FA0546C9
:10105800484B1B6813F0006F06D000F03BFA431BA7
:10106800022BF5D90320EBE76268A3681B0743EA64
:101078008213404AC2F884303D4B01229A6600F040
:1010880029FA05463B4B1B6813F0006FD3D100F0DB
:1010980021FA431B022BF5D90320D1E70023019342
:1010A800344B1A6C42F080521A641B6C03F0805364
:1010B8000193019B304A136843F48073136000F076
:1010C80009FA05462C4B1B6813F4807F06D100F003
:1010D80001FA431B022BF5D90320B1E7254B1B6FFF
:1010E80013F4407314D0E26802F440729A420FD0AD
:1010F800204B1A6F22F440721D490120C1F8400E9E
:101108000020C1F8400E1A671B6F13F0010F13D1AE
:10111800E36803F44072B2F5407F1ED0154A936825
:1011280023F4F813936013490B6FE268C2F30B02C0
:1011380013430B67002083E700F0CCF905460D4BFD
:101148001B6F13F0020FE3D100F0C4F9401B41F20A
:1011580088339842F3D9032072E706498A6822F453
:10116800F81223F0704323F4407313438B60DAE7DB
:1011780000004742003802400070004000230F2B57
:1011880000F2E48070B582B060E085685E000324F8
:10119800B44025EA0405CC68B4402C438460456813
:1011A80025EA02054C68C4F300129A402A434260BB
:1011B8005AE0DC08083450F8246003F00702950070
:1011C8000F22AA4026EA020E0A69AA4042EA0E0243
:1011D80040F824205CE0072200E0002202FA0EF228
:1011E8002A4302345A4D45F824205A4A14686FEAB3
:1011F8000C0224EA0C054E6816F4803F01D04CEA34
:101208000405544C2560646802EA04054E6816F427
:10121800003F01D04CEA04054E4C6560A46802EA20
:1012280004054E6816F4801F01D04CEA0405494CA9
:10123800A560E46822404D6815F4001F01D04CEA0F
:101248000402444CE26001330F2B7DD801229A40FE
:101258000C6804EA020C32EA0404F4D14C6804F085
:101268000304013C012C90D94A6802F00302032AC6
:1012780009D0C4685D000322AA4024EA02048A68EF
:10128800AA402243C2604A6802F00302022A90D0B0
:1012980004684FEA430E032202FA0EF224EA02041B
:1012A8004A6802F0030202FA0EF2224302604A6818
:1012B80012F0805FC7D000220192274A546C44F490
:1012C80080445464526C02F480420192019A9C0852
:1012D800A51C1F4A52F8255003F003024FEA820E5C
:1012E8000F2202FA0EF225EA02051C4A90423FF448
:1012F80074AF02F5806290421AD002F58062904283
:1013080018D002F58062904216D002F580629042B1
:1013180014D002F58062904212D002F580629042A9
:1013280010D002F5806290423FF455AF082255E78D
:10133800012253E7022251E703224FE704224DE737
:1013480005224BE7062249E702B070BD704700BF8F
:1013580000380140003C01400038024000000240D3
:101368000AB181617047090481617047436901EAE4
:10137800030221EA030141EA02418161704700004A
:10138800074AD36823F4E0631B041B0C000200F433
:10139800E060034343F0BF6343F40033D360704716
:1013A80000ED00E000B5194BDB68C3F30223C3F17D
:1013B800070CBCF1040F28BF4FF0040C03F1040E16
:1013C800BEF1060F18D9033B4FF0FF3E0EFA0CFC96
:1013D80021EA0C0199400EFA03F322EA03031943A8
:1013E80000280BDB0901C9B200F1604000F561403B
:1013F80080F800135DF804FB0023E5E700F00F0018
:101408000901C9B2024B1954F4E700BF00ED00E02E
:1014180014ED00E00138B0F1807F0BD24FF0E023EB
:101428005861054AF02182F82310002098610722AC
:101438001A6170470120704700ED00E010B50446BE
:101448000E4B18784FF47A73B3FBF0F30C4A10681C
:10145800B0FBF3F0FFF7DEFF68B90F2C01D90120CC
:101468000AE0002221464FF0FF30FFF79BFF054BB3
:101478001C60002000E0012010BD00BF000000201B
:10148800080000200400002008B50B4B1A6842F43D
:1014980000721A601A6842F480621A601A6842F48C
:1014A80080721A600320FFF76BFF0020FFF7C6FF6A
:1014B800FFF760F9002008BD003C0240034A1168AC
:1014C800034B1B780B441360704700BFE0000020FB
:1014D80000000020014B1868704700BFE0000020A2
:1014E80038B50446FFF7F6FF0546B4F1FF3F02D0D2
:1014F800044B1B781C44FFF7EDFF401BA042FAD3B6
:1015080038BD00BF00000020034AD2F8883043F4F9
:101518007003C2F88830704700ED00E0002800F042
:10152800CC8070B5044690F83D30002B77D024234A
:1015380084F83D302268136823F0010313602268A1
:10154800136843F4004313602268136823F40043CC
:101558001360FFF749FD62685A4B9A4264D85A4BA8
:1015680098428CBF00230123002B40F0A8805749E4
:10157800A1FB00318B0C25686A6822F03F0242EA21
:1015880091426A6021680A6A22F03F0266684D4DFE
:10159800AE424FD8013313430B622168CA6922F463
:1015A8004F4222F0FF026668464B9E424CD8431ECB
:1015B8007600B3FBF6F3013340F6FC70034278D0B3
:1015C800C3F30B031343CB6121680B6823F0C003FB
:1015D800E269206A024313430B6021688B6823F495
:1015E800034323F0FF032269E068024313438B603F
:1015F8002168CB6823F0FF036269A06902431343A3
:10160800CB602268136843F0010313600020206454
:10161800202384F83D30206384F83E0070BD80F8B4
:101628003C30FFF7C3F882E7294B98428CBF002370
:10163800012399E74FF4967505FB03F3254DA5FBA8
:1016480003539B090133A6E7A368BBB9451E06EB04
:10165800460CB5FBFCF50135C5F30B05B5FA85F568
:101668006D0945BBC3B9013806EB4603B0FBF3F37C
:101678000133C3F30B0343F40043A3E7451E06EB12
:10168800860C0CEB8C0CB5FBFCF50135C5F30B0592
:10169800B5FA85F56D09E4E7013806EB860303EB37
:1016A8008303B0FBF3F30133C3F30B0343F4404369
:1016B80088E7042386E7012384E701207047012097
:1016C800ACE700BFA08601007F841E0083DE1B43B9
:1016D800FF083D00D34D621038B50446026813690F
:1016E80023F44053C1680B431361836802691343B1
:1016F80042691343C2691A430168CB6823F416434D
:1017080023F00C031343CB600268536923F440733E
:1017180081690B4353610368314A934206D002F54D
:101728008062934202D0FFF75FFC01E0FFF76CFC98
:10173800E369B3F5004F29D00021031849411B186C
:1017480041F10001C90041EA5371DB0018186368D0
:101758004FEA83024FEA937341F10001FEF730FD2F
:10176800204DA5FB00325109642303FB11031B0123
:101778003233A5FB03235B0903F0F00202EB0112ED
:1017880003F00F03216813448B6038BD002302184F
:1017980043EB0301121841F10001C90041EA5271FB
:1017A800D200101841F10001626892185B41FEF7FF
:1017B80007FD0C4DA5FB00325109642303FB1103FF
:1017C800DB003233A5FB03235B095A0002F4F872ED
:1017D80002EB011203F00703216813448B60D4E77E
:1017E800001001401F85EB512DE9F84305460F46CF
:1017F80016469946DDF820802C68246837EA0403E9
:101808000CBF4FF0010C4FF0000CB4451FD1B8F1DC
:10181800FF3FF1D0B8F1000F05D0FFF75BFEA0EB5A
:1018280009004045E8D92A68D36823F4D073D36007
:101838002A68536923F001035361202385F83D305A
:1018480085F83E30002385F83C30032000E0002076
:10185800BDE8F88358B310B5044690F83D300BB393
:10186800242384F83D302268D36823F40053D360DE
:101878002046FFF731FF2268136923F49043136170
:101888002268536923F02A0353612268D36843F41A
:101898000053D36000202064202384F83D3084F86E
:1018A8003E3010BD80F83C30FEF7C8FFD8E7012075
:1018B80070472DE9F04182B01E4690F83D30DBB20A
:1018C800202B54D104460D469046002953D0002AB7
:1018D80053D090F83C30012B51D0012380F83C3094
:1018E80000230364212380F83D30FFF7F3FD07460A
:1018F800A4F82480A4F82680A368B3F5805F05D0F7
:101908004FF00008002384F83C3012E0236913B13B
:101918004FF00008F6E7A8460025F3E738F8023B41
:101928002268C3F308035360E28C92B2013A92B280
:10193800E284E38C9BB273B100963B46002280217F
:101948002046FFF751FFE0B9002DE7D015F8012B2D
:1019580023685A60E8E700963B460022402120466B
:10196800FFF742FF78B9202384F83D3000E00220D9
:1019780002B0BDE8F0810120FAE70120F8E7022073
:10198800F6E70320F4E70320F2E70000DFF834D09D
:101998000D480E490E4A002302E0D458C4500433BF
:1019A800C4188C42F9D30B4A0B4C002301E0136096
:1019B8000432A242FBD3FFF7A7FD00F011F8FEF7AF
:1019C80067FE704700000220000000200C00002085
:1019D800E81A00080C000020E4000020FEE70000E0
:1019E80070B50D4D0D4C641BA4100026A64209D1FC
:1019F8000B4D0C4C00F020F8641BA4100026A642E6
:101A080005D170BD55F8043B98470136EEE755F807
:101A1800043B98470136F2E7E01A0008E01A00088C
:101A2800E01A0008E41A000802440346934200D171
:101A3800704703F8011BF9E7F8B500BFF8BC08BC0C
:101A48009E467047F8B500BFF8BC08BC9E46704774
:101A580048656C6C6F20576F726C64210000000041
:101A6800000000000000000000000000000000006E
:101A7800000000000000000000000000000000005E
:101A8800000000002828282828282828282828286E
:101A9800000000000000000000000000000000003E
:101AA800000000000000000000000000000000002E
:101AB800000000000000000000000000000000001E
:101AC80001020304060708090000000001020304DC
:081AD80020E7FF7F0100000080
:041AE000AD0100084C
:041AE400890100086C
:0C1AE80001000000100000000024F400C9
:040000050800199541
:00000001FF
