:020000040800F2
:1000000000000220514F0008ED0A0008EF0A000826
:10001000F10A0008F30A0008F50A000800000000D1
:10002000000000000000000000000000F70A0008C7
:10003000F90A000800000000FB0A0008FD0A000899
:10004000A14F0008A14F0008A14F0008A14F0008D0
:10005000A14F0008A14F0008050B0008A14F0008A0
:10006000A14F0008A14F0008A14F0008A14F0008B0
:10007000A14F0008A14F0008A14F0008A14F0008A0
:10008000A14F0008A14F0008A14F0008A14F000890
:10009000A14F0008A14F0008A14F0008A14F000880
:1000A000A14F0008A14F0008A14F0008A14F000870
:1000B0001D0B0008390B0008710B0008A14F000848
:1000C000A14F0008A14F0008A14F0008A14F000850
:1000D000A14F0008A14F0008A14F0008A14F000840
:1000E000A14F0008A14F0008A14F0008A14F000830
:1000F000A14F0008A14F0008A14F0008A14F000820
:10010000A14F0008A14F0008A14F0008A14F00080F
:10011000A14F0008A14F0008A14F0008A14F0008FF
:10012000A14F0008A14F0008A14F0008A14F0008EF
:10013000A14F0008A14F0008A14F0008A14F0008DF
:10014000A14F0008A14F0008A14F00089D0B000817
:10015000A14F0008A14F0008A14F0008A14F0008BF
:10016000A14F0008A14F0008A14F0008A14F0008AF
:10017000A14F0008A14F0008A14F00080000000097
:08018000A14F0008A14F000887
:1001900010B5054C237833B9044B13B10448AFF3C1
:1001A00000800123237010BD90000020000000009B
:1001B0008C58000808B5034B1BB103490348AFF343
:1001C000008008BD00000000940000208C5800084A
:1001D000034613F8012B002AFBD1181A0138704787
:1001E00001F0FF01102A2BDB10F0070F08D010F8E8
:1001F000013B013A8B422DD010F0070F42B3F6D1EC
:10020000F0B441EA012141EA014122F007047FF004
:1002100000070023F0E80256083C85EA010586EA5B
:10022000010685FA47F5A3FA87F586FA47F6A5FA97
:1002300087F68EB9EED1F0BC01F0FF0102F00702A3
:1002400032B110F8013B013A83EA010313B1F8D14E
:100250000020704701387047002D06BF354603382F
:10026000073815F0010F07D1013015F4807F02BF68
:10027000013015F4C03F0130F0BC0138704700BFB9
:1002800053B94AB9002908BF00281CBF4FF0FF31FD
:100290004FF0FF3000F074B9ADF1080C6DE904CEF9
:1002A00000F006F8DDF804E0DDE9022304B0704751
:1002B0002DE9F047089D04468E46002B4DD18A4219
:1002C000944669D9B2FA82F252B101FA02F3C2F14C
:1002D000200120FA01F10CFA02FC41EA030E9440DD
:1002E0004FEA1C48210CBEFBF8F61FFA8CF708FBFE
:1002F00016E341EA034306FB07F199420AD91CEBD6
:10030000030306F1FF3080F01F81994240F21C8107
:10031000023E63445B1AA4B2B3FBF8F008FB10334F
:1003200044EA034400FB07F7A7420AD91CEB040484
:1003300000F1FF3380F00A81A74240F20781644454
:10034000023840EA0640E41B00261DB1D4400023D9
:10035000C5E900433146BDE8F0878B4209D9002D3D
:1003600000F0EF800026C5E9000130463146BDE8C7
:10037000F087B3FA83F6002E4AD18B4202D3824231
:1003800000F2F980841A61EB030301209E46002DE0
:10039000E0D0C5E9004EDDE702B9FFDEB2FA82F235
:1003A000002A40F09280A1EB0C014FEA1C471FFA93
:1003B0008CFE0126200CB1FBF7F307FB131140EA7A
:1003C00001410EFB03F0884208D91CEB010103F147
:1003D000FF3802D2884200F2CB804346091AA4B209
:1003E000B1FBF7F007FB101144EA01440EFB00FEDD
:1003F000A64508D91CEB040400F1FF3102D2A64542
:1004000000F2BB800846A4EB0E0440EA03409CE7E0
:10041000C6F12007B34022FA07FC4CEA030C20FA8D
:1004200007F401FA06F31C43F9404FEA1C4900FAAD
:1004300006F3B1FBF9F8200C1FFA8CFE09FB18112A
:1004400040EA014108FB0EF0884202FA06F20BD99D
:100450001CEB010108F1FF3A80F08880884240F2ED
:100460008580A8F102086144091AA4B2B1FBF9F031
:1004700009FB101144EA014100FB0EFE8E4508D92C
:100480001CEB010100F1FF346CD28E456AD90238B1
:10049000614440EA0840A0FB0294A1EB0E01A14296
:1004A000C846A64656D353D05DB1B3EB080261EB04
:1004B0000E0101FA07F722FA06F3F1401F43C5E9DE
:1004C000007100263146BDE8F087C2F12003D84014
:1004D0000CFA02FC21FA03F3914001434FEA1C4756
:1004E0001FFA8CFEB3FBF7F007FB10360B0C43EA48
:1004F000064300FB0EF69E4204FA02F408D91CEBF8
:10050000030300F1FF382FD29E422DD902386344F5
:100510009B1B89B2B3FBF7F607FB163341EA034195
:1005200006FB0EF38B4208D91CEB010106F1FF38E4
:1005300016D28B4214D9023E6144C91A46EA0046DB
:1005400038E72E46284605E70646E3E61846F8E66D
:100550004B45A9D2B9EB020864EB0C0E0138A3E7B6
:100560004646EAE7204694E74046D1E7D0467BE797
:10057000023B614432E7304609E76444023842E70F
:10058000704700BF2DE9F04F8DB000240794089408
:1005900009940A940B940194614B1A6B42F0100277
:1005A0001A631A6B02F010020192019A02941A6BFC
:1005B00042F004021A631A6B02F004020292029AD9
:1005C00003941A6B42F080021A631A6B02F08002E5
:1005D0000392039A04941A6B42F001021A631A6B95
:1005E00002F001020492049A05941A6B42F002028E
:1005F0001A631A6B02F002020592059A06941A6BAE
:1006000042F008021A631B6B03F008030693069B73
:10061000444F22460821384602F0E1FBDFF81481FE
:1006200001221146404602F0DAFBDFF80CA1224617
:100630000221504602F0D3FB3B4E224602213046B7
:1006400002F0CDFBDFF8F49022464FF2100148464D
:1006500002F0C5FB082307930125089509940A9425
:1006600007A9384602F0C2FA0795089509940A943A
:1006700007A9404602F0BAFA4FF00208CDF81C80F4
:10068000089509940A9407A9504602F0AFFA4FF072
:10069000040BCDF81CB00894099407A9504602F049
:1006A000A5FA0795214B0893099407A9304602F053
:1006B0009DFACDF81C80089509940A9407A9304644
:1006C00002F094FACDF81CB00894099407A93046BA
:1006D00002F08CFA4FF210030793089509940A94DC
:1006E00007A9484602F082FA202307930894099448
:1006F00007A9484602F07AFACDF81C800C4B089303
:10070000099407A9384602F071FA224621460620CC
:1007100002F08CFB062002F0C1FB0DB0BDE8F08FAB
:100720000038024000100240000402400000111096
:10073000000012100008024000000240000C0240BD
:1007400072B6FEE700B585B00023009301930293D3
:1007500003931448144A02604FF48032426083606D
:100760000361037680F82030C362104A8262C3605E
:100770000122C26180F83030426102F0B1FC68B9F8
:100780000F23009301230193002302936946054838
:1007900002F0F4FD20B905B05DF804FBFFF7D0FFCF
:1007A000FFF7CEFFE4000020002101400100000F10
:1007B00008B50948094B0360002343607F2282602B
:1007C000FF22C26003614361836102F0DAFE00B977
:1007D00008BDFFF7B5FF00BF2C0100200028004036
:1007E00000B587B00023029303930493059300930D
:1007F000019315484FF0804202604AF20F42426076
:10080000836040F69F72C26003618023836103F0BE
:10081000CDF890B94FF48053029302A90A4803F02F
:10082000FEF860B90023009301936946064803F07F
:1008300063F930B907B05DF804FBFFF781FFFFF7FC
:100840007FFFFFF77DFF00BF4C01002000B587B0A0
:100850000023029303930493059300930193144898
:10086000144A02604AF20F424260836040F2CF7243
:10087000C26003618023836103F098F890B94FF45C
:100880008053029302A90A4803F0C9F860B9002313
:10089000009301936946064803F02EF930B907B07A
:1008A0005DF804FBFFF74CFFFFF74AFFFFF748FF37
:1008B000940100200004004000B587B0002302939B
:1008C000039304930593009301931448144A026020
:1008D0004AF20F424260836040F2CF72C26003610D
:1008E0008023836103F062F890B94FF48053029340
:1008F00002A90A4803F093F860B90023009301931A
:100900006946064803F0F8F830B907B05DF804FB13
:10091000FFF716FFFFF714FFFFF712FFDC010020BF
:100920000008004008B50A480A4B03604FF416530C
:10093000436000238360C36003610C2242618361D2
:10094000C36103F0DFF900B908BDFFF7F9FE00BF8E
:1009500024020020004C004000B599B03022002154
:100960000DEB020004F052FB002307930893099358
:100970000A930B9303930493059306930193284AD8
:10098000116C41F080511164126C02F0805201929E
:10099000019A0293234B1A6842F480421A601B6842
:1009A00003F480430293029B09230C934FF480339A
:1009B0000D9301231193022312934FF4800213929B
:1009C000082214924FF4A8721592169307231793D6
:1009D0000CA801F025FDE0B90F230793022308932B
:1009E000002309934FF4A0530A934FF480530B93C1
:1009F000052107A801F07AFF68B9022303934FF499
:100A00000073069303A802F047F830B919B05DF8F7
:100A100004FBFFF795FEFFF793FEFFF791FE00BF83
:100A2000003802400070004010B502F07FFAFFF776
:100A300093FFFFF7A7FDFFF785FEFFF7B9FEFFF76E
:100A4000CFFEFFF703FFFFF737FFFFF76BFF00F065
:100A5000B1F91E4802F026FE1D4802F023FE0024D4
:100A600016E01C4802F01EFE012401211A4802F083
:100A7000AFF938B90022022100F1804000F50130C1
:100A800002F0ADF9154B1A881549164804F07CFBA5
:100A900000F0B0F90421144802F09AF908B9002CCA
:100AA000DFD00421104802F093F90028DDD0002C9B
:100AB000DBD0084802F03AFE00244FF080435C622D
:100AC00022460221084802F08AF9CEE7940100206C
:100AD000DC0100204C01002000040240AC0000209A
:100AE000A4580008B000002000000240FEE7FEE726
:100AF000FEE7FEE7FEE770477047704708B502F073
:100B00002FFA08BD08B501220221034802F067F957
:100B1000012002F06BF908BD0004024008B5012273
:100B20000221034802F05BF9024802F01DFE08BDF5
:100B3000000002404C01002010B50A4C204602F093
:100B4000FBFA4FF0FF31204602F0B8FB204602F0DE
:100B500011FC054B1880204602F090FB034802F080
:100B600003FE10BDE4000020AC0000209401002032
:100B700010B5074C2046FFF72BFB4FF0FF3382B236
:100B80002146044803F0EDF8034802F0EDFD10BDE6
:100B9000B000002024020020DC01002008B502483B
:100BA00000F081FF08BD00BF4406002000B583B0FF
:100BB000002100910C4B5A6C42F480425A645A6CEA
:100BC00002F480420092009A01911A6C42F0805225
:100BD0001A641B6C03F080530193019B072002F001
:100BE00013F903B05DF804FB0038024000B589B08A
:100BF0000023039304930593069307930268124B13
:100C00009A4202D009B05DF804FB002101910F4B1C
:100C10005A6C42F400725A645A6C02F400720192E7
:100C2000019A02911A6B42F004021A631B6B03F0E3
:100C300004030293029B202303930323049303A939
:100C4000034801F0D3FFDDE70021014000380240F6
:100C5000000802400268044B9A4200D07047034BE0
:100C60000122C3F83C2EF9E700280040000047426B
:100C700000B585B00368B3F1804F08D0224A934293
:100C80001AD0224A93422BD005B05DF804FB002114
:100C9000019103F50E331A6C42F001021A641B6CC9
:100CA00003F001030193019B0A461C2002F0BEF8E9
:100CB0001C2002F0F3F8E7E700210291144B1A6CB4
:100CC00042F002021A641B6C03F002030293029BBF
:100CD0000A461D2002F0AAF81D2002F0DFF8D3E733
:100CE000002103910A4B1A6C42F004021A641B6C37
:100CF00003F004030393039B0A461E2002F096F8B8
:100D00001E2002F0CBF8BFE70004004000080040BE
:100D10000038024000B589B0002303930493059383
:100D2000069307930268164B9A4202D009B05DF809
:100D300004FB0021019103F5F6331A6C42F4002202
:100D40001A641A6C02F400220192019A02911A6B41
:100D500042F004021A631B6B03F004030293029B2C
:100D60004FF4406303930223049301230593032369
:100D700006930823079303A9024801F037FFD5E73C
:100D8000004C00400008024004290CD0052902D084
:100D9000022904D07047064B03221A707047044B97
:100DA00002221A707047024B01221A70F2E700BF4C
:100DB0006802002008B501220B490C4803F0BDF978
:100DC00048B90B49094803F0D7F938B9074803F087
:100DD00018FA30B908BDFFF7B3FCF2E7FFF7B0FC33
:100DE000F4E7FFF7ADFCF5E7890D00086C02002081
:100DF0000C00002008B5024803F00DFA08BD00BF42
:100E00006C02002070B588B000230393049305930F
:100E1000069307930368B3F1A04F01D008B070BDEB
:100E2000002501951A4C236B43F001032363236BC8
:100E300003F001030193019B4FF400730393154EDC
:100E400003A9304601F0D2FE4FF4E053039302238E
:100E50000493059506950A23079303A9304601F0EC
:100E6000C5FE636B43F0800363630295636C43F4D8
:100E700080436364636C03F480430293029B2A46BD
:100E80002946432001F0D2FF432002F007F8C5E7CE
:100E9000003802400000024008B5D0F8000303F01B
:100EA000F8FA08BD08B5D0F8000303F003FB08BD4D
:100EB00008B5D0F8000303F007FB08BD704708B57C
:100EC000D0F8000303F0EEFA08BD08B5D0F800032F
:100ED00003F0ECFA08BD000090F8CC33012B01D0F0
:100EE0000020704710B504460F48C0F80043C4F80E
:100EF000D0034FF0A0430360082383600123C36045
:100F00000023036102228261C36100F059F940B9F4
:100F1000054800F0A3FE0146204603F0B7FA002082
:100F200010BDFFF70DFCF3E74406002008B5D0F82C
:100F3000D00300F098FE012804D0022804D000B1AC
:100F4000012008BD0120FCE70220FAE708B5D0F82F
:100F5000D00300F07EFE08BD08B5D0F8D00300F045
:100F600072FE08BD08B590F8CC33012B04D0C82020
:100F700002F008F8002008BD084600F06DF8F6E71A
:100F8000D0F8D0332C2000FB013090F83B0030B17A
:100F90002C2000FB013383F85420002070472C20C4
:100FA00000FB013383F85520F7E708B501F0EAFFAD
:100FB00008BD022805D8DFE800F005040200012082
:100FC00070470220704708B5D0F8D00300F00EFE3D
:100FD000FFF7EFFF08BD08B5D0F8D00300F01CFE06
:100FE000FFF7E7FF08BD08B5D0F8D00300F026FEF4
:100FF000FFF7DFFF08BD10B584B0D0F8D003BDF80F
:10100000204002949DF81C4001949DF818400094E3
:1010100000F07DF8FFF7CDFF04B010BD08B5D0F8A3
:10102000D00300F0BBF8FFF7C4FF08BD10B584B0D3
:10103000D0F8D0039DF824400394BDF820400294DA
:10104000079C01949DF81840009400F00BF9FFF7FD
:10105000B0FF04B010BD000008B528B9012201217D
:10106000024801F0BCFE08BD0022F8E7000802407B
:10107000F8B50668346A04F00F07C4F34343C4F3B9
:101080000A14022B00D0F8BD0546002CFBD02C23FF
:1010900003FB0703596C0029F5D02C2303FB07033E
:1010A0001A6D2244DB6C9A4206D92C2000FB0755AE
:1010B000042385F86030E6E72246304600F09DFEC6
:1010C0002C2303FB07535A6C22445A641A6D2244A2
:1010D0001A6506EB4716D6F81025C2F3C942B3F8D5
:1010E0004030A342CFD1002ACDD0D6F8003523F02E
:1010F000804343F00043C6F800352C2303FB07551B
:1011000095F8543083F0010385F85430BBE7F0B50F
:1011100085B004469DF828509DF82C60BDF83070CD
:1011200090F8F802012837D0012084F8F8022C202A
:1011300000FB01404FF0000C80F83DC080F83830D3
:10114000A0F8407080F8391080F83F6002F07F0C02
:1011500080F83AC012F0800F16D12C2000FB01401D
:101160004FF0000C80F83BC02C2000FB014080F8C1
:101170003C50029701960095206800F045FF00233F
:1011800084F8F83205B0F0BD2C2000FB01404FF090
:10119000010C80F83BC0E7E70220F3E790F8F83253
:1011A000012B0BD010B50446012380F8F8320068FB
:1011B00000F0BEFF002084F8F80210BD0220704746
:1011C00000284DD070B58AB00446056890F8F93211
:1011D000002B40D0032384F8F932EB6B13F4807FAB
:1011E00001D100232361206800F0ABFDA4465CF828
:1011F000106BEE46BCE80F00AEE80F00BCE80F0035
:10120000AEE80F009CE803008EE80300251D95E87A
:101210000E00304600F04AFD0121206800F097FDE5
:10122000A4465CF8106BEE46BCE80F00AEE80F0079
:10123000BCE80F00AEE80F009CE803008EE8030056
:1012400095E80E00304600F051FE012384F8F93293
:1012500000200AB070BD80F8F832FFF7D3FDB9E77F
:101260000120704770B59DF81050BDF818604FF020
:101270002C0C0CFB010C8CF83B208CF83F307DB91A
:1012800064464FF0030C84F842C09DF81CC084F8FB
:101290003DC0032B00F28180DFE803F00A79295179
:1012A0002C2404FB01044FF0020C84F842C0F0E748
:1012B000012D72D1002A70D12EB92C2303FB01031A
:1012C000012283F855202C2303FB010393F85530AA
:1012D00033B92C2303FB0103002283F842205CE096
:1012E0002C2303FB0103022283F8422055E092B92C
:1012F0002C2303FB010393F855302BB92C2303FB5C
:10130000010383F8422048E02C2303FB010302225F
:1013100083F8422041E02C2303FB010393F854306F
:1013200033B92C2303FB0103002283F8422034E06D
:101330002C2303FB0103022283F842202DE092B903
:101340002C2303FB010393F855302BB92C2303FB0B
:10135000010383F8422020E02C2303FB0103022237
:1013600083F8422019E02C2303FB010393F8543047
:1013700033B92C2303FB0103002283F842200CE045
:101380002C2303FB0103022283F8422005E02C23D7
:1013900003FB0103002283F842202C2301FB03F30B
:1013A000C218059C5464D664002482F86040146519
:1013B00082F8391082F8614003F13801027C01445F
:1013C000006800F039FF70BD30B583B00446056891
:1013D000D5F840340193D5F840340093009B23F0B6
:1013E0002E030093019B13F0020F07D0019B13F013
:1013F000010F25D1009B43F002030093019B13F0E2
:10140000080F10D0009B43F008030093019B13F0DA
:10141000040F2DD0A369022B15D0E368012B22D035
:101420002046FFF74CFD019B13F0200F03D0009BDB
:1014300043F020030093009BC5F8403403B030BD57
:10144000FFF730FDD6E7019B03F4C023B3F5802FEF
:1014500004D00121206800F0E7FCE1E702212068C8
:1014600000F0E2FCDCE74EF66022C5F80424D7E782
:101470002046FFF72AFDD6E7F8B505460E46076871
:1014800007EB411707F5A064A36813F0040F40D0E1
:101490000423A360E36843F00203E360A36813F44A
:1014A000007F40F09380A36813F0010F00F0D78015
:1014B0002B6943B12C2303FB06539A6C2169C1F3BA
:1014C0001201521A1A652C2303FB0653012283F8DA
:1014D00061200021D965A26093F83F30002B00F015
:1014E0008180022B7ED0032B00F09380012B40F0F3
:1014F00083802C2303FB0653012283F8602093F89A
:101500005410514083F8541031462846FFF7D6FC5A
:1015100072E0A36813F4807F06D1A36813F0200F54
:1015200013D02023A360B9E74FF48073A3602C236A
:1015300003FB0103072283F86120E36843F0020301
:10154000E360006800F0F4FDA8E7A36813F0080F5B
:1015500017D1A36813F4806F25D1A36813F0800F0F
:101560009CD0E36843F00203E3602C2303FB0103F8
:10157000062283F86120006800F0DAFD8023A36072
:101580008CE7E36843F00203E3602C2303FB0103D1
:10159000052283F861201023A3600823A36000685C
:1015A00000F0C6FD7AE7E36843F00203E3602C2312
:1015B00003FB0103082283F861201023A3604FF48A
:1015C0008063A360006800F0B3FD67E7E36843F061
:1015D0000203E3603146286800F0AAFD4FF400736F
:1015E000A360F8BDE36843F00203E3603146286876
:1015F00000F09EFD1023A3602B69012B1AD02C2133
:1016000001FB065595F8543083F0010385F85430FA
:10161000E7E7D7F8003543F00053C7F800352C232F
:1016200003FB0653012283F8602031462846FFF76A
:1016300045FCE1E72C2303FB06539A6CB3F84030DA
:10164000B2FBF3F313F0010FCBD02C2303FB0655B1
:1016500095F8543083F0010385F85430C1E7A3684E
:1016600013F0020F64D0E36823F00203E3602C233D
:1016700003FB065393F86130012B13D0052B23D0C5
:10168000062B28D0082B26D0032B42D0072B0FD1B6
:101690002C2303FB0653DA6D0132DA65042283F84A
:1016A000602005E02C2303FB0653012283F8602011
:1016B0000223A3602C2303FB065393F860203146DA
:1016C0002846FFF7FBFB8CE72C2303FB0653052280
:1016D00083F86020ECE72C2202FB0652D36D013325
:1016E000D365022B06D913460022DA65042283F85B
:1016F0006020DDE72C2303FB0653022283F86020E1
:10170000D7F8003523F0804343F00043C7F8003595
:10171000CEE72C2303FB0653022283F86020D7F880
:10172000003523F0804343F00043C7F80035BFE79E
:10173000A36813F0100F3FF454AF2C2303FB0653A0
:1017400093F83F30032B0CD00BB1022B06D12C2386
:1017500003FB06530022DA652B6983B11023A360D3
:101760003FE72C2303FB06530022DA65E36843F0CE
:101770000203E3603146286800F0DAFCEEE72C2330
:1017800003FB0653032283F86120E36843F002035E
:10179000E3603146286800F0CBFCDFE770B50368F2
:1017A00003EB411303F5A064A26812F0040F06D006
:1017B0000423A360E36843F00203E36070BD0546C1
:1017C0000E46A26812F0200F18D02023A3602C230D
:1017D00003FB010393F83D30012BEFD12C2303FBD6
:1017E0000103002283F83D20022283F86020E36891
:1017F0001343E360006800F09BFCDFE7A26812F48B
:10180000007F24D1A26812F0010F2BD02C2303FB00
:1018100001030022DA65A36813F0400F07D02C23E0
:1018200003FB0103012283F83D204023A360E3680A
:1018300043F00203E3603146286800F079FC01239D
:10184000A3602C2101FB065585F86130B6E7E368FB
:1018500043F00203E360006800F06AFC4FF4007399
:10186000A360ABE7A26812F0400F29D1A26812F082
:10187000080F3AD1A26812F0100F46D02C2303FBB8
:1018800001030022DA65032283F8612093F83D30DA
:101890005BB92C2303FB010393F83C302BB92C23B9
:1018A00003FB0103012283F83D20E36843F00203B8
:1018B000E3603146286800F03BFC1023A3607DE71D
:1018C0002C2303FB0103042283F86120012283F807
:1018D0003D200022DA65E36843F00203E36000681C
:1018E00000F026FC4023A36068E70823A360E368B8
:1018F00043F00203E360006800F01AFC2C2303FBB2
:101900000655052385F8613058E7A26812F0800F6C
:1019100029D0036983B12C2202FB0102D36D01336C
:10192000D365022B16D82C2303FB0105022385F86F
:1019300060308023A36041E72C2303FB01030622D0
:1019400083F86120E36843F00203E360006800F07D
:10195000EFFBEEE713460022DA65042283F86020ED
:10196000FFF7ACFAE5E7A26812F4806F27D1A2680E
:1019700012F0020F3FF422AFE26822F00202E260AE
:101980002C2202FB010292F86120012A2AD0032AAC
:101990005BD0042A6BD0052A70D0062A01D0082A11
:1019A00059D12C2101FB0651CA6D0132CA65022AA8
:1019B0006AD90022CA65042281F860204BE0E368FE
:1019C00043F00203E360006800F0B2FB1023A36061
:1019D0004FF48063A3602C2303FB0655082385F88E
:1019E0006130EBE62C2303FB010383F8602093F8BE
:1019F0003F30023BDBB293422DD80369934209D0BA
:101A00002C2303FB010393F8552082F0010283F895
:101A1000552020E02C2303FB0103DB6CDBB12C22DF
:101A200002FB0102B2F840201344013BB3FBF2F386
:101A300013F0010F0FD02C2303FB010393F8552063
:101A400082F0010283F8552005E02C2303FB0103FB
:101A5000022283F860200223A3602C2303FB065399
:101A600093F8602031462846FFF728FAA6E62C2393
:101A700003FB0103022283F86020ECE72C2303FB25
:101A8000010383F86020E6E72C2202FB06520221C4
:101A900082F86010D3F8002522F0804242F0004224
:101AA000C3F80025D7E7F8B504460568284600F0D6
:101AB000B7F9012800D0F8BD206800F0ADF9002882
:101AC000F9D0206800F0A8F910F4001F03D02368B3
:101AD0004FF400125A61206800F09EF910F4801F44
:101AE00003D023684FF480125A61206800F094F903
:101AF00010F0806F03D023684FF080625A61206835
:101B000000F08AF910F0020F02D0236802225A6115
:101B1000206800F081F910F0005F08D023684FF0D2
:101B200000525A61D5F8403413F0010F1DD02068DF
:101B300000F072F910F0807F1FD1206800F06CF97E
:101B400010F0080F1DD1206800F066F910F0100F9A
:101B50001ED1206800F060F910F0007FABD0206843
:101B600000F0E1FA0746002625E02046FFF7A0F93D
:101B70000121206800F058F9D9E72046FFF724FC3E
:101B8000DBE72046FFF788F9236808225A61DAE785
:101B90002268936923F0100393612046FFF768FAE7
:101BA0002268936943F010039361D2E7F1B22046B3
:101BB000FFF7F4FD0136A368B34212D906F00F0314
:101BC00027FA03F313F0010FF4D005EB4613D3F813
:101BD000003513F4004FE9D0F1B22046FFF74CFC7A
:101BE000E8E723684FF000725A6164E738B590F86F
:101BF000F832012B0ED00446012580F8F852006817
:101C000000F099F82946206800F04CF9002084F88B
:101C1000F80238BD0220FCE790F8F832012B0BD017
:101C200010B50446012380F8F832006800F0BAFBD2
:101C3000002084F8F80210BD0220704708B5006843
:101C400000F011F908BD2C2303FB010090F860009F
:101C500070472C2303FB0100006D704708B5006836
:101C600000F0CDF908BD08B5006800F0BDF908BD69
:101C7000002301330C4A934211D80269002AF8DA92
:101C8000036943F00103036100230133064A9342D1
:101C900007D8026912F0010FF7D100207047032026
:101CA00070470320704700BF400D030084B010B59B
:101CB000044603A880E80E00089B012B1FD1A36BEC
:101CC00023F48033A363E36823F4840323F0400305
:101CD000E360E36823F44013E3600F9B012B09D01A
:101CE0002046FFF7C5FF069B012B1BD0BDE8104027
:101CF00004B07047E36843F48013E360F0E7E368FF
:101D000043F04003E3602046FFF7B2FF0C9B23B98A
:101D1000A36B43F48033A363E5E7A36B23F4803321
:101D2000A363E0E7A36843F00603A360A36843F05E
:101D30002003A360DAE7836843F001038360002097
:101D40007047836823F0010383600020704708B563
:101D5000C36823F0C043C360012909D069B9C368CF
:101D600043F08043C360322001F00CF9002008BD2D
:101D7000C36843F00053C360F5E70120F7E70000B4
:101D8000890141F02001016100230133054A93429A
:101D900005D8026912F0200FF7D100207047032008
:101DA000704700BF400D030010230361002301337F
:101DB000054A934205D8026912F0100FF7D10020AE
:101DC00070470320704700BF400D030010B59DF819
:101DD000084084B903334FEA930E4FF0000C08E03B
:101DE00000EB023303F5805351F8044B1C600CF1F7
:101DF000010CF445F4D3002010BD84460846D11CE4
:101E00008908002305E00CF58052126840F8042B85
:101E100001338B42F7D370474269806910407047A5
:101E2000406900F00100704700F5806CD0F8003484
:101E300023F00303C0F80034D0F8003401F00302AB
:101E40001343C0F80034012903D0022906D0002032
:101E500070474BF68033CCF80430F8E741F27073EA
:101E6000CCF80430F3E730B583B004460025019583
:101E7000D0F840340193019B23F02E030193019B82
:101E800043F48073C0F84034642001F07BF8019B78
:101E900023F48073C4F840340A2001F073F8284614
:101EA00003B030BD82B000230193D0F840340193D9
:101EB000019B23F02E030193019B13F4805F01D15A
:101EC00001290CD0019B13F4805F05D021B9019B3F
:101ED00023F48053C0F84034002002B07047019BC7
:101EE00043F48053C0F84034ECE7000084B010B5F0
:101EF000044603A880E80E000023C4F8003EA36B4C
:101F000043F40013A363A36B23F40023A363A36B25
:101F100023F48023A363E36B13F4807F10D0059B2D
:101F2000012B06D0D4F8003423F00403C4F80034A5
:101F30000CE0D4F8003443F00403C4F8003405E0A6
:101F4000D4F8003423F00403C4F8003410212046F0
:101F5000FFF716FF2046FFF727FF002209E004EBFA
:101F600042134FF0FF31C3F808150021C3F80C15D8
:101F70000132049B9342F2D801212046FFF792FFE1
:101F8000C82000F0FFFF0023A3614FF0FF3363611F
:101F9000E36B13F4807F17D04FF40073636203F197
:101FA0008073A3620D4BC4F80031069B1BB9A36973
:101FB00043F01003A361A269094B1343A3610020FE
:101FC000BDE8104004B070478023636203F5C0038E
:101FD000A362044BC4F80031E7E700BF0003E00050
:101FE000080020A3E000400082B000230193D0F855
:101FF000403401930198C0F3414002B0704700F5AE
:102000008060806880B270472DE9F84391461C4695
:102010009DF8245000EB411606F5A0634FF0FF3207
:102020009A60032D6AD8DFE805F0025B021840F2DF
:102030009D42DA6019F0800F09D1C26B12F4807FE3
:102040005ED0DA6842F06002DA6000270CE0DA68FD
:1020500042F48072DA60002706E040F29D62DA60A6
:1020600019F0800F36D10027D0F8183401F00F0195
:10207000012202FA01F11943C0F81814836943F0F0
:102080000073836119F0800F3CD14FF00008FFF717
:10209000ABFF9DF82030022B37D00021A30503F0C1
:1020A000FE534FEAC92909F4F04943EA0903AC0495
:1020B00004F440242343BDF82820C2F30A0213434A
:1020C00043EA08030B43C6F80035032D24D03846F5
:1020D000BDE8F883DA6842F48072DA600027C3E76B
:1020E00040F22522DA6019F0800F01D10027BBE70A
:1020F000DA6842F4C072DA600027B5E70127B3E777
:102100000027B1E74FF40048C1E7022802D04FF49E
:102110000031C3E70021C1E7D6F8003543F0005392
:10212000C6F80035D3E700F58060406980B270479B
:1021300030B400EB411101F5A062D1F80035C3F3D2
:102140008143D1F80045856815F0200F02D0E40FD7
:10215000002C55D033B3022B24D0D1F8003543F0F6
:102160008043C1F80035D0F8103413F47F034AD10E
:10217000D1F8000520F00040C1F80005D1F80005B5
:1021800040F00040C1F80005D1F8000520F40040FF
:10219000C1F800050133B3F57A7F31D81168002901
:1021A000F8DB2DE0D1F8003543F08043C1F800356D
:1021B000836813F0200F23D1C36A13F47F0319D16E
:1021C000D1F8000520F00040C1F80005D1F8000565
:1021D00040F00040C1F80005D1F8000520F40040AF
:1021E000C1F800050133B3F57A7F09D811680029D9
:1021F000F8DB05E0D1F8003543F00043C1F80035C5
:10220000002030BC7047D1F8003543F00043C1F8DE
:102210000035F5E700EB4111064AC1F81025D1F869
:10222000003523F0804343F00043C1F8003500201F
:10223000704700BF0000088030B585B04B78C46B94
:1022400014F4807F07D00C792CB9012A16D012B96A
:102250004C79012C1FD04C690CB30D8904EB050C93
:102260000CF1FF3CBCFBF5FC1FFA8CFCBCF5807F3D
:1022700017D92D020D614FF4807C12E0CC790CB19E
:10228000022CE4D100EB4314D4F80C5525F0700572
:10229000C4F80C55DBE74978FFF7BCFF70E04FF05E
:1022A000010CCD78002D52D00C8904FB0CF40C618C
:1022B0000C69C4F312043A4D05EACC4C44EA0C0410
:1022C00091F80AC04FEA4C7C0CF0C04C00EB431371
:1022D00044EA0C04C3F8104512B1CC68C3F81445A5
:1022E00000F5806CDCF8084014F0010F0CBF4FF0D3
:1022F000010E4FF0000ED3F8005525F00055C3F83D
:102300000055D3F8004544EA4E74C3F80045D3F8AD
:1023100000450394039C24F080440394CC78C4B11A
:10232000039C44F400440394039C44F0004403944D
:10233000039CC3F800451ABBCB780BBB4B69FBB1C0
:10234000CA79032A15D8DFE802F0091E091E0C61BC
:10235000AEE7039C24F400440394E5E70333C26A28
:1023600092B2C3F38F039A4203D2836943F02003EE
:102370008361002300938B8A4A78C968FFF726FDA2
:10238000002005B030BD0333DCF8102092B2C3F357
:102390008F039A42EDD2836943F080638361E8E75B
:1023A0000000F81F10B50446FFF7CBFC10212046B3
:1023B000FFF7E6FC2046FFF7F7FC00220AE004EBFB
:1023C0004211D1F8003523F0802343F08043C1F857
:1023D000003501320F2AF2D90020034600E0013017
:1023E0000F2813D804EB401C0CF5A061DCF8002585
:1023F00022F4004242F04042CCF800250133B3F50C
:102400007A7FECD80A68002AF8DBE8E74FF0FF3360
:10241000C4F8143463612046FFF78DFC002010BD22
:10242000002800F0E08170B582B00446036813F024
:10243000010F3BD09F4B9B6803F00C03042B2CD067
:102440009C4B9B6803F00C03082B21D06368B3F509
:10245000803F4FD0B3F5A02F52D0964B1A6822F48C
:1024600080321A601A6822F480221A606368002B96
:1024700050D000F081FD05468E4B1B6813F4003FE1
:1024800014D100F079FD401B6428F5D90320B1E197
:10249000884B5B6813F4800FD8D0864B1B6813F40D
:1024A000003F03D06368002B00F09F81236813F086
:1024B000020F54D07F4B9B6813F00C0F3ED07D4B26
:1024C0009B6803F00C03082B33D0E368002B68D023
:1024D000794B01221A6000F04FFD0546754B1B68D1
:1024E00013F0020F54D100F047FD401B0228F5D92C
:1024F00003207FE16F4A136843F480331360B5E72C
:102500006C4B1A6842F480221A601A6842F48032D6
:102510001A60ABE700F030FD0546664B1B6813F40C
:10252000003FC3D000F028FD401B6428F5D90320EC
:1025300060E1604B5B6813F4800FC6D15D4B1B6894
:1025400013F0020F03D0E368012B40F05081594A89
:10255000136823F0F803216943EAC1031360236879
:1025600013F0080F42D063696BB3534B0122C3F8D9
:10257000802E00F001FD05464E4B5B6F13F0020FFD
:1025800034D100F0F9FC401B0228F5D9032031E1D9
:10259000484A136823F0F803216943EAC103136032
:1025A000DDE7454B00221A6000F0E6FC0546414B92
:1025B0001B6813F0020FD2D000F0DEFC401B022893
:1025C000F5D9032016E13C4B0022C3F8802E00F021
:1025D000D3FC0546374B5B6F13F0020F06D000F0BB
:1025E000CBFC401B0228F5D9032003E1236813F03C
:1025F000040F77D02F4B1B6C13F0805F33D1002377
:1026000001932C4B1A6C42F080521A641B6C03F03D
:1026100080530193019B0125284B1B6813F4807F95
:1026200023D0A368012B34D0052B38D0214B1A6F4F
:1026300022F001021A671A6F22F004021A67A368D7
:10264000002B3DD000F098FC06461A4B1B6F13F090
:10265000020F46D100F090FC801B41F28833984273
:10266000F3D90320C6E00025D6E7144A136843F4E3
:102670008073136000F080FC0646104B1B6813F457
:10268000807FCED100F078FC801B0228F5D9032092
:10269000B0E0084A136F43F001031367CFE7054B1F
:1026A0001A6F42F004021A671A6F42F001021A67A9
:1026B000C5E700BF003802400000474200700040FC
:1026C00000F05AFC0646524B1B6F13F0020F08D065
:1026D00000F052FC801B41F288339842F3D903206A
:1026E00088E0EDB9A369002B00F08380484A926826
:1026F00002F00C02082A51D0022B17D0454B0022C1
:102700001A6600F039FC0446414B1B6813F0007F49
:1027100042D000F031FC001B0228F5D9032069E00B
:102720003B4A136C23F080531364DBE7394B0022E0
:102730001A6600F021FC0546354B1B6813F0007F3C
:1027400006D000F019FC401B0228F5D9032051E007
:10275000E369226A1343626A43EA8213A26A520857
:10276000013A43EA0243E26A43EA0263284A5360B9
:10277000284B01221A6600F0FFFB0446244B1B681D
:1027800013F0007F06D100F0F7FB001B0228F5D9FB
:1027900003202FE000202DE000202BE0012B2BD088
:1027A0001B4B5B6803F48001E269914226D103F080
:1027B0003F02216A8A4223D1616A47F6C0721A40F9
:1027C000B2EB811F1ED103F44031A26A5208013AD4
:1027D000B1EB024F18D103F07063E26AB3EB026F02
:1027E00014D1002006E001207047012002E0012002
:1027F00000E0002002B070BD0120FBE70120F9E7F6
:102800000120F7E70120F5E70120F3E70120F1E7D8
:10281000003802400000474208B5314B9B6803F086
:102820000C03042B57D0082B57D12D4B5A6802F0BC
:102830003F025B6813F4800F2AD0294B5968C1F31B
:10284000881C4FEA4C11B1EB0C006EEB0E0E4FEAF8
:102850008E1343EA90638101091A63EB0E03DB00D8
:1028600043EA5173C90011EB0C0C43F10003590208
:1028700000234FEA4C2041EADC51FDF701FD184BE3
:102880005B68C3F3014301335B00B0FBF3F025E069
:10289000134B5968C1F3881C4FEA4C11B1EB0C0083
:1028A0006EEB0E0E4FEA8E1343EA90638101091A14
:1028B00063EB0E03DB0043EA5173C90011EB0C0C10
:1028C00043F10003990200234FEA8C2041EA9C5116
:1028D000FDF7D6FCD3E7034800E0034808BD00BF7E
:1028E0000038024000127A000024F400002800F0B2
:1028F0009B8070B50D4604464F4B1B6803F00703E1
:102900008B4208D2CBB24C4A1370136803F0070312
:102910008B4240F08B80236813F0020F17D013F026
:10292000040F04D0454A936843F4E053936023684E
:1029300013F0080F04D0414A936843F46043936056
:102940003E4A936823F0F003A1680B439360236829
:1029500013F0010F32D06368012B21D09A1E012A97
:1029600025D9364A126812F0020F61D033498A68BD
:1029700022F0030213438B6000F0FEFA06462F4B51
:102980009B6803F00C036268B3EB820F16D000F073
:10299000F3FA801B41F288339842F0D9032042E0D9
:1029A000264A126812F4003FE0D101203BE0234A9E
:1029B000126812F0007FD9D1012034E01E4B1B6851
:1029C00003F00703AB4207D9EAB21B4B1A701B682E
:1029D00003F00703AB422DD1236813F0040F06D098
:1029E000164A936823F4E053E1680B43936023682D
:1029F00013F0080F07D0114A936823F4604321694C
:102A000043EAC1039360FFF707FF0C4B9B68C3F3D6
:102A100003130B4AD35CD8400A4B18600A4B186862
:102A200000F05EFA002070BD012070470120FAE737
:102A30000120F8E70120F6E7003C024000380240A0
:102A4000A85800080800002004000020014B186866
:102A5000704700BF0800002008B5FFF7F7FF044BE0
:102A60009B68C3F38223034AD35CD84008BD00BFF0
:102A700000380240B858000808B5FFF7E7FF044BDC
:102A80009B68C3F34233034AD35CD84008BD00BF00
:102A900000380240B858000830B583B004460368D7
:102AA00013F0050F06D1236813F0020F2ED100207A
:102AB00003B030BD4A4B00229A6600F05DFA05462D
:102AC000484B1B6813F0006F06D000F055FA431B0B
:102AD000022BF5D90320EBE76268A3681B0743EAE2
:102AE0008213404AC2F884303D4B01229A6600F0BE
:102AF00043FA05463B4B1B6813F0006FD3D100F03F
:102B00003BFA431B022BF5D90320D1E700230193A5
:102B1000344B1A6C42F080521A641B6C03F08053E1
:102B20000193019B304A136843F48073136000F0F3
:102B300023FA05462C4B1B6813F4807F06D100F066
:102B40001BFA431B022BF5D90320B1E7254B1B6F62
:102B500013F4407314D0E26802F440729A420FD02A
:102B6000204B1A6F22F440721D490120C1F8400E1B
:102B70000020C1F8400E1A671B6F13F0010F13D12C
:102B8000E36803F44072B2F5407F1ED0154A9368A3
:102B900023F4F813936013490B6FE268C2F30B023E
:102BA00013430B67002083E700F0E6F905460D4B61
:102BB0001B6F13F0020FE3D100F0DEF9401B41F26E
:102BC00088339842F3D9032072E706498A6822F4D1
:102BD000F81223F0704323F4407313438B60DAE759
:102BE00000004742003802400070004000230F2BD5
:102BF00000F2E48070B582B060E085685E00032476
:102C0000B44025EA0405CC68B4402C438460456890
:102C100025EA02054C68C4F300129A402A43426038
:102C20005AE0DC08083450F8246003F007029500ED
:102C30000F22AA4026EA020E0A69AA4042EA0E02C0
:102C400040F824205CE0072200E0002202FA0EF2A5
:102C50002A4302345A4D45F824205A4A14686FEA30
:102C60000C0224EA0C054E6816F4803F01D04CEAB1
:102C70000405544C2560646802EA04054E6816F4A5
:102C8000003F01D04CEA04054E4C6560A46802EA9E
:102C900004054E6816F4801F01D04CEA0405494C27
:102CA000A560E46822404D6815F4001F01D04CEA8D
:102CB0000402444CE26001330F2B7DD801229A407C
:102CC0000C6804EA020C32EA0404F4D14C6804F003
:102CD0000304013C012C90D94A6802F00302032A44
:102CE00009D0C4685D000322AA4024EA02048A686D
:102CF000AA402243C2604A6802F00302022A90D02E
:102D000004684FEA430E032202FA0EF224EA020498
:102D10004A6802F0030202FA0EF2224302604A6895
:102D200012F0805FC7D000220192274A546C44F40D
:102D300080445464526C02F480420192019A9C08CF
:102D4000A51C1F4A52F8255003F003024FEA820ED9
:102D50000F2202FA0EF225EA02051C4A90423FF4C5
:102D600074AF02F5806290421AD002F58062904200
:102D700018D002F58062904216D002F5806290422F
:102D800014D002F58062904212D002F58062904227
:102D900010D002F5806290423FF455AF082255E70B
:102DA000012253E7022251E703224FE704224DE7B5
:102DB00005224BE7062249E702B070BD704700BF0D
:102DC00000380140003C0140003802400000024051
:102DD0000369194201D001207047002070470AB1F1
:102DE00081617047090481617047704708B5054BE0
:102DF0005B69034200D108BD024B5861FFF7F5FF44
:102E0000F9E700BF003C0140074AD36823F4E063C0
:102E10001B041B0C000200F4E060034343F0BF639B
:102E200043F40033D360704700ED00E000B5194B68
:102E3000DB68C3F30223C3F1070CBCF1040F28BF06
:102E40004FF0040C03F1040EBEF1060F18D9033B3A
:102E50004FF0FF3E0EFA0CFC21EA0C0199400EFAED
:102E600003F322EA0303194300280BDB0901C9B26B
:102E700000F1604000F5614080F800135DF804FB4C
:102E80000023E5E700F00F000901C9B2024B195415
:102E9000F4E700BF00ED00E014ED00E0002807DBE0
:102EA00000F01F02400901239340024A42F82030FB
:102EB000704700BF00E100E00138B0F1807F0BD225
:102EC0004FF0E0235861054AF02182F823100020DA
:102ED000986107221A6170470120704700ED00E0F9
:102EE00010B504460E4B18784FF47A73B3FBF0F329
:102EF0000C4A1068B0FBF3F0FFF7DEFF68B90F2C47
:102F000001D901200AE0002221464FF0FF30FFF7EF
:102F10008DFF054B1C60002000E0012010BD00BFAC
:102F200000000020080000200400002008B50B4B22
:102F30001A6842F400721A601A6842F480621A60D9
:102F40001A6842F480721A600320FFF75DFF0020C8
:102F5000FFF7C6FFFDF72AFE002008BD003C024037
:102F6000034A1168034B1B780B441360704700BF82
:102F70004809002000000020014B1868704700BF7E
:102F80004809002038B50446FFF7F6FF0546B4F1BE
:102F9000FF3F02D0044B1B781C44FFF7EDFF401BA2
:102FA000A042FAD338BD00BF000000204A4B5A6847
:102FB00022F440325A605A6841680A435A600268F3
:102FC000536823F48073536002685368016943EACD
:102FD000012353600268536823F040735360026812
:102FE000536881680B4353600268936823F400635D
:102FF000936002689368C1680B439360826A374BA1
:103000009A4257D00268936823F070639360026815
:103010009368816A0B4393600268936823F040537E
:10302000936002689368C16A0B4393600268936877
:1030300023F00203936002689368017E43EA410330
:10304000936090F82030002B3FD00268536843F41F
:10305000006353600268536823F46043536001685F
:103060004B68426A013A43EA42334B600268D36AD2
:1030700023F47003D3620168CB6AC269013A43EA60
:103080000253CB620268936823F400739360026872
:10309000936890F8301043EA412393600268936884
:1030A00023F48063936002689368416943EA812353
:1030B000936070470268936823F0706393600268BE
:1030C000936823F040539360B0E70268536823F499
:1030D00000635360CAE700BF002301400100000FF6
:1030E00038B310B50446036C43B1236C13F0100FD2
:1030F0000BD00120002384F83C3010BDFDF776FD95
:103100000023636484F83C30EFE7236C23F4885396
:1031100023F0020343F0020323642046FFF746FF37
:1031200000206064236C23F0030343F00103236455
:10313000E0E701207047000082B00023019390F87F
:103140003C30012B00F08980012380F83C3003687B
:103150009A6812F0010F13D19A6842F001029A6046
:10316000414B1B68414AA2FB03239B0C03EB430327
:10317000019302E0019B013B0193019B002BF9D1DC
:103180000268936813F0010F5CD0036C23F4E063D2
:1031900023F0010343F480730364536813F4806FD6
:1031A00005D0036C23F4405343F480530364036C51
:1031B00013F4805F1BD0436C23F0060343640023A9
:1031C00080F83C306FF022031360294B5B6813F0EA
:1031D0001F0F27D10368274A934211D002F580724E
:1031E000934207D0244A934214D0002033E00023B6
:1031F0004364E4E702F50072526812F01F0FF1D148
:103200009A6812F0405F2AD19A6842F080429A6030
:10321000002020E002F58072526812F0100FEFD00B
:10322000002018E00368134A934201D0002012E006
:103230009A6812F0405F14D19A6842F080429A6016
:10324000002008E0036C43F010030364436C43F078
:1032500001034364002002B070470220FBE7002016
:10326000F9E70020F7E700BF0800002083DE1B43DA
:1032700000230140002001400022014090F83C3032
:10328000012B19D0012380F83C300268936823F0A9
:103290000103936003689B6813F0010F07D1036C6F
:1032A00023F4885323F0010343F001030364002354
:1032B00080F83C30184670470220704770B50446CD
:1032C0000D4603689A6812F4806F03D09B6813F46C
:1032D000807F19D1FFF750FE064623681A6812F066
:1032E000020F20D1B5F1FF3FF7D0B5B923681B68B5
:1032F00013F0020FF1D1236C43F004032364002385
:1033000084F83C30032032E0036C43F02003036474
:10331000002380F83C30012029E0FFF72DFE801BC0
:10332000A842DAD9E2E76FF012021A60236C43F484
:103330000073236423689A6812F0405F16D1207EE0
:10334000B0B9DA6A12F4700F03D09B6813F4806F7F
:103350000DD1236C23F480732364236C13F4805FFA
:1033600005D1236C43F00103236400E0002070BD0D
:103370000020FCE70368D86C7047000030B482B0CE
:103380000023019390F83C30012B00F0BB80012317
:1033900080F83C300B68092B41D90468E2689BB285
:1033A00003EB43031E3B4FF0070C0CFA03F322EA36
:1033B0000303E3600468E2680B8803EB43031E3BEE
:1033C0008D6805FA03F31343E3604B68062B3DD881
:1033D0000468626B03EB8303053B4FF01F0C0CFA90
:1033E00003F322EA030363630468626B4B6803EB35
:1033F0008303053BB1F800C00CFA03F31343636386
:103400000268414B9A4251D002683F4B9A4256D0D3
:10341000002380F83C30184602B030BC7047046886
:1034200022699BB203EB43034FF0070C0CFA03F342
:1034300022EA03032361046822690B8803EB430338
:103440008D6805FA03F313432361BEE70C2B16D8EE
:1034500005682A6B03EB8303233B1F2404FA03F361
:1034600022EA03032B6305682A6B4B6803EB830393
:10347000233B0C8804FA03F313432B63C0E705686E
:10348000EA6A03EB8303413B1F2404FA03F322EAB5
:103490000303EB620568EA6A4B6803EB8303413B75
:1034A0000C8804FA03F31343EB62A9E70B68122BB1
:1034B000AAD1164A536843F480035360A4E70B680B
:1034C000103B012BA4D8114A536843F40003536006
:1034D0000B68102B9CD10E4B1B6802F1467202F553
:1034E0002E3202F28332A2FB03239B0C03EB8303F5
:1034F0005B00019302E0019B013B0193019B002BC8
:10350000F9D185E7022087E7002001400023014030
:103510000800002038B504460268D36823F0A003F1
:10352000D360FFF729FD05462368DB6813F0200F01
:1035300007D1FFF721FD401BB0F57A7FF4D90320B6
:1035400000E0002038BD38B50368DA6812F0400F9B
:1035500001D0002038BD04464FF0FF32DA60FFF79B
:103560000BFD05462368DB6813F0400F07D1FFF71A
:1035700003FD431BB3F57A7FF4D90320EAE700206B
:10358000E8E738B500285CD00446437F002B41D0E3
:10359000022363772368CA225A62236853225A623D
:1035A0002046FFF7D0FF0546002837D122689368F0
:1035B00023F4E00323F04003936021688A68636882
:1035C000206903436069034313438B602368E26807
:1035D0001A6122681369A16843EA014313612268F2
:1035E000D36823F08003D36023689B6813F0200F17
:1035F0001BD02268136C23F4802313642268136C9D
:10360000A1690B4313642368FF225A620123637785
:10361000284638BD0377FDF71DFBB9E72368FF2275
:103620005A62042363770125F2E72046FFF772FF11
:103630000028DED02368FF225A6204236377012525
:10364000E6E70125E4E710B4036A046A24F0010404
:103650000462846924F0F00C4CEA021223F00A039D
:103660000B43826103625DF8044B704710B4046A37
:1036700024F0100404628469036A24F4704C4CEA58
:10368000023223F0A00343EA0113826103625DF872
:10369000044B7047836823F070030B4343F0070328
:1036A0008360704790F83D30DBB2012B37D10223A5
:1036B00080F83D300268D36843F00103D3600368AB
:1036C000194A934220D0B3F1804F1DD0A2F57C421D
:1036D000934219D002F58062934215D002F58062C0
:1036E000934211D002F5784293420DD002F5705208
:1036F000934209D0A2F59432934205D01A6842F061
:1037000001021A60002070479A6802F00702062A38
:1037100007D01A6842F001021A60002070470120A9
:1037200070470020704700BF000001400268D36866
:1037300023F00103D3600368196A41F211121142A8
:1037400008D1196A40F24442114203D11A6822F0AA
:1037500001021A60012380F83D3000207047704755
:10376000704770477047704710B5044603681A6980
:1037700012F0020F11D0DA6812F0020F0DD06FF0C4
:1037800002021A610123037703689B6913F0030F98
:1037900070D0FFF7E6FF0023237723681A6912F041
:1037A000040F12D0DA6812F0040F0ED06FF004028A
:1037B0001A610223237723689B6913F4407F5FD04B
:1037C0002046FFF7CEFF0023237723681A6912F003
:1037D000080F12D0DA6812F0080F0ED06FF008024E
:1037E0001A61042323772368DB6913F0030F4ED09B
:1037F0002046FFF7B6FF0023237723681A6912F0EB
:10380000100F12D0DA6812F0100F0ED06FF0100205
:103810001A61082323772368DB6913F4407F3DD0C6
:103820002046FFF79EFF0023237723681A6912F0D2
:10383000010F03D0DA6812F0010F36D123681A693C
:1038400012F0800F03D0DA6812F0800F34D12368B1
:103850001A6912F0400F03D0DA6812F0400F32D12B
:1038600023681A6912F0200F03D0DA6812F0200FD3
:1038700030D110BDFFF774FF2046FFF773FF8AE7D2
:103880002046FFF76DFF2046FFF76CFF9BE72046C1
:10389000FFF766FF2046FFF765FFACE72046FFF71E
:1038A0005FFF2046FFF75EFFBDE76FF001021A6180
:1038B0002046FFF754FFC1E76FF080021A612046EF
:1038C00000F061F9C3E76FF040021A612046FFF78C
:1038D0004AFFC5E76FF020021A61204600F052F956
:1038E000C7E700000368304A904212D0B0F1804F21
:1038F0000FD0A2F57C4290420BD002F5806290423C
:1039000007D002F58062904203D002F578429042DF
:1039100003D123F070034A681343234A90422AD00C
:10392000B0F1804F27D0A2F57C42904223D002F51F
:10393000806290421FD002F5806290421BD002F557
:103940007842904217D002F57052904213D002F59F
:10395000806290420FD002F5806290420BD0A2F5B7
:103960009832904207D002F58062904203D002F56F
:103970008062904203D123F44073CA68134323F05A
:1039800080034A69134303608B68C3620B688362D8
:10399000054B984203D003F58063984201D10B692F
:1039A00003630123436170470000014040B310B539
:1039B000044690F83D30F3B1022384F83D302146AF
:1039C00051F8040BFFF78EFF012384F8463084F88A
:1039D0003E3084F83F3084F8403084F8413084F839
:1039E000423084F8433084F8443084F8453084F819
:1039F0003D30002010BD80F83C30FDF739F9DBE7A1
:103A00000120704710B4846824F47F4C42EA0322FA
:103A10000A4342EA0C0282605DF8044B704790F85A
:103A20003C30012B66D010B50446012380F83C30B1
:103A3000022380F83D300268936823F47F4323F02B
:103A4000770393600B68602B40D022D8402B47D07F
:103A50000BD9502B0ED1CA6849680068FFF7F3FDF7
:103A600050212068FFF716FE04E0202B0CD008D967
:103A7000302B09D0012384F83D30002084F83C002D
:103A800010BD0BB1102BF5D119462068FFF702FECF
:103A9000F0E7702B0ED0B3F5005FEBD1CB684A682E
:103AA00089680068FFF7AEFF2268936843F480439B
:103AB0009360DFE7CB684A6889680068FFF7A2FF78
:103AC0002268936843F077039360D3E7CA68496834
:103AD0000068FFF7CBFD60212068FFF7DBFDC9E739
:103AE000CA6849680068FFF7AEFD40212068FFF70B
:103AF000D1FDBFE70220704790F83C30012B3DD04C
:103B000010B4012380F83C30022380F83D30036874
:103B10005A689C6822F0700C0A6842EA0C025A60EB
:103B20000368174A93421AD0B3F1804F17D0A2F519
:103B30007C42934213D002F5806293420FD002F58B
:103B4000806293420BD002F57842934207D002F58F
:103B50007052934203D0A2F59432934204D124F0E0
:103B600080044A6814439C60012380F83D300023A0
:103B700080F83C3018465DF8044B704702207047CF
:103B8000000001407047704738B504460268136969
:103B900023F44053C1680B431361836802691343E4
:103BA00042691343C2691A430168CB6823F4164380
:103BB00023F00C031343CB600268536923F4407372
:103BC00081690B4353610368314A934206D002F581
:103BD0008062934202D0FEF73FFF01E0FEF74CFF08
:103BE000E369B3F5004F29D00021031849411B18A0
:103BF00041F10001C90041EA5371DB001818636804
:103C00004FEA83024FEA937341F10001FCF738FB5E
:103C1000204DA5FB00325109642303FB11031B0156
:103C20003233A5FB03235B0903F0F00202EB011220
:103C300003F00F03216813448B6038BD0023021882
:103C400043EB0301121841F10001C90041EA52712E
:103C5000D200101841F10001626892185B41FCF734
:103C60000FFB0C4DA5FB00325109642303FB11032C
:103C7000DB003233A5FB03235B095A0002F4F87220
:103C800002EB011203F00703216813448B60D4E7B1
:103C9000001001401F85EB512DE9F84305460F4602
:103CA00016469946DDF820802C68246837EA04031C
:103CB0000CBF4FF0010C4FF0000CB4451FD1B8F110
:103CC000FF3FF1D0B8F1000F05D0FFF755F9A0EB99
:103CD00009004045E8D92A68D36823F4D073D3603B
:103CE0002A68536923F001035361202385F83D308E
:103CF00085F83E30002385F83C30032000E00020AA
:103D0000BDE8F88358B310B5044690F83D300BB3C6
:103D1000242384F83D302268D36823F40053D36011
:103D20002046FFF731FF2268136923F490431361A3
:103D30002268536923F02A0353612268D36843F44D
:103D40000053D36000202064202384F83D3084F8A1
:103D50003E3010BD80F83C30FCF7DCFFD8E7012096
:103D600070472DE9F04182B01E4690F83D30DBB23D
:103D7000202B54D104460D469046002953D0002AEA
:103D800053D090F83C30012B51D0012380F83C30C7
:103D900000230364212380F83D30FFF7EDF8074648
:103DA000A4F82480A4F82680A368B3F5805F05D02A
:103DB0004FF00008002384F83C3012E0236913B16F
:103DC0004FF00008F6E7A8460025F3E738F8023B75
:103DD0002268C3F308035360E28C92B2013A92B2B4
:103DE000E284E38C9BB273B100963B4600228021B3
:103DF0002046FFF751FFE0B9002DE7D015F8012B61
:103E000023685A60E8E700963B460022402120469E
:103E1000FFF742FF78B9202384F83D3000E002200C
:103E200002B0BDE8F0810120FAE70120F8E70220A6
:103E3000F6E70320F4E70320F2E70000034AD2F894
:103E4000883043F47003C2F88830704700ED00E01A
:103E50008446002306E003F1E0020CEB820200211D
:103E6000516001330E2BF6D9002305E00CEB030261
:103E7000002182F81C110133B3F5007FF6D3002036
:103E80008CF800008CF8010001238CF80230CCF88B
:103E9000C4038CF8183040228CF806208CF81900E6
:103EA0008CF81C038CF81D338CF81F038CF81E0350
:103EB000704708B50378DBB20B2B00D008BDD0F8F3
:103EC0007C33002BFAD09B699847F7E770B584B034
:103ED00004464578072D00F22C81DFE815F0080034
:103EE000480069009A00BF00E500FE0017010821A4
:103EF00000F0FDFC18B1032821D0012509E194F858
:103F00002D33A3710125657002930026019694F864
:103F10001D33009394F81C3380222179204600F051
:103F2000E5FDA3790293019694F81D33009394F86C
:103F30001C3332466179204600F0D8FDE9E094F860
:103F40001E330133DBB284F81E33032B03D90D2358
:103F500023700125DDE06179204600F0EFFD217935
:103F6000204600F0EBFD002323700125D1E0122153
:103F700000F0BDFC10B902236370CAE0032840F0D2
:103F8000C88094F81E330133DBB284F81E33032B50
:103F900002D90D232370BCE06179204600F0CEFDEC
:103FA0002179204600F0CAFD002363702370B0E041
:103FB000012100F0E6FC18B1032824D00125A8E077
:103FC0000220FCF7F2FF012584F81C5303236370E1
:103FD000A37902930026019694F81D3300932B4693
:103FE00080222179204600F081FDA3790293019679
:103FF00094F81D33009394F81C33324661792046BF
:1040000000F074FD85E00D2323700023637001250B
:104010007FE0092100F084FC18B9042363700125B6
:1040200077E0032801D0012573E094F81E330133B3
:10403000DBB284F81E33032B03D90D232370012533
:1040400067E06179204600F079FD2179204600F093
:1040500075FD00236370237001255AE0B0F83A1310
:1040600000F05EFC18B905236370012551E00328B8
:1040700001D001254DE094F81E330133DBB284F802
:104080001E33032B03D90D232370012541E06179F1
:10409000204600F053FD2179204600F04FFD00231B
:1040A00063702370012534E090F8341319B90623A6
:1040B000437001252DE0FF2300F58E7200F049FCCE
:1040C00018B906236370012523E0032801D00125D8
:1040D0001FE00623637001251BE090F8351319B922
:1040E00007234370012514E0FF2300F58E7200F0D2
:1040F00030FC18B90723637001250AE0032801D0BA
:10410000012506E007236370012502E090F836538D
:1041100015B9284604B070BDFF2300F58E722946FC
:1041200000F017FC05460028F3D0032803D0012532
:10413000EFE70125EDE70025EBE7D8B170B50E46B6
:10414000044680F8CC230025C0F87C53C0F8805387
:10415000FFF77EFE84F8235384F8205384F821531C
:1041600084F822530EB1C4F8D4632046FCF7B4FEA1
:10417000002070BD022070470A4651B1D0F880334C
:104180004BB9591CC0F88013DE3340F823200020BF
:104190007047022070470220704790F83C338B42F2
:1041A00003D980F82413002070470220704710B50F
:1041B000044600200BE04FF01A0C0CFB0E4E9EF84C
:1041C00049C39C451CD0FF2B1AD00130C0B2012836
:1041D00015D886464FF01A0C0CFB004C9CF847C3D0
:1041E0008C4501D0FF29F0D14FF01A0C0CFB0E4C7E
:1041F0009CF848C39445DED0FF2AE6D1DBE7FF20D8
:1042000010BD10B50446FCF7DEFE01212046FCF788
:10421000A9FE002010BD30B587B0044602238DF8FA
:10422000173090F82133DBB2012B11D02378DBB2A9
:104230000B2B7BD8DFE813F00F00210045000501B0
:104240007A007D00E30092009C00A600B700FC000D
:1042500003230370EAE794F82033002B66D0012390
:104260002370C820FCF7A1FE2046FCF7BCFE00230B
:1042700084F81C33C4F8C83358E094F82333012B76
:104280000FD0D4F8C833B3F57A7F13D994F81F331D
:104290000133DBB284F81F33032B08D90D232370BD
:1042A00044E0002384F81F33022323703EE0002300
:1042B00023703BE00A33C4F8C8330A20FCF775FECC
:1042C00034E0D4F8D43313B1042120469847642055
:1042D000FCF76BFE2046FCF729FE84F81D0305233E
:1042E00023700021204600F016FC607180212046DA
:1042F00000F011FC01462071A3790293002501957D
:1043000094F81D33009394F81C338022204600F06B
:10431000EDFBA3790293019594F81D33009394F873
:104320001C332A466179204600F0E0FB002007B0EC
:1043300030BD2046FFF7CAFD8DF817009DF81730F5
:10434000002BF3D184F8243394F83733012B02D0B7
:1043500007232370EAE708232370E7E7D4F8D43370
:10436000002BE3D001212046984708232370DDE786
:1043700094F83D13204600F015FB0028D6D1092300
:104380002370D3E794F83F3313F0200F02D10A23B0
:104390002370CBE70121204600F015FB0028C5D192
:1043A0000A232370C2E7D4F88033002BBED0002349
:1043B000C4F87C3373B1D4F87C33EBB19B682046EE
:1043C0009847B0B906232370D4F8D433032120468C
:1043D0009847ABE703F1DE0254F82220107994F8F5
:1043E0004713884202D00133DBB2E3E7C4F87C23F1
:1043F000E1E70D23237099E70D23237096E7D4F8A6
:104400007C3393B11B69204698478DF817009DF8BF
:10441000173013B90B23237088E79DF81730DBB2F0
:10442000022B83D10D23237080E70D2323707DE7BA
:10443000D4F87C33002B3FF479AF5B692046984772
:1044400074E7002384F821332046FFF701FDD4F8F8
:104450007C332BB1DB68204698470023C4F87C33BB
:10446000D4F8D43313B105212046984794F8223369
:10447000DBB2012B03D02046FCF7A5FD56E7002355
:1044800084F822332046FFF7BCFE4FE7C0F8C41380
:10449000704708B5D0F8C4230132C0F8C423FFF731
:1044A00008FD08BD012380F823337047002380F8FE
:1044B000233370470346012280F82023002083F82D
:1044C000210383F82203704738B50446012380F89E
:1044D0002133002580F8205380F82353FCF77BFD1F
:1044E0002179204600F02AFB6179204600F026FB66
:1044F000284638BD0B7803704B7843708B7891F861
:1045000003C043EA0C2343800B7903714B79437159
:104510008B798371CB79C371082A16D90B7A4A7AC1
:1045200043EA022303818B7ACA7A43EA0223438156
:104530000B7B4A7B43EA022383818B7B8373CB7B98
:10454000C3730B7C03744B7C437470470B7803700C
:104550004B7843708B788370CB78C3700B79037181
:104560004B7943718B798371CB79C3710B7A037269
:1045700070470B7803704B7843708B788370CB78DF
:10458000C3700B794A7943EA022383808B79837164
:1045900070474378032B00D070470378023B9A4260
:1045A00028BF1A4692B2002307E000EB030C9CF8E8
:1045B00002C001F801CB02339BB29342F5D3002332
:1045C0000B70E9E730B583B00446057E6B1E0A2BFD
:1045D00000F2DE80DFE803F00610354154617E8A88
:1045E0009DAAC100427900F1100100F00FFA0223E8
:1045F0002376284603B030BD4179FCF7ADFC054673
:10460000012805D0042818D0022816D00125F0E78B
:10461000237CE28A42B113F0800F02D10523237676
:10462000E7E703232376E4E713F0800F02D10723A3
:104630002376DEE709232376DBE70B2323760125A8
:10464000D7E7D0F8C433C38103798289816800F049
:1046500004FA042323760125CBE70179FCF77CFCDF
:10466000012806D0052800F09580042804D00125F3
:10467000BFE709232376F5E70B2323760125B8E767
:104680000125009543798289816800F0D0F9D4F83A
:10469000C433E38106232376ABE74179FCF75CFC66
:1046A0000546012807D0052808D002280AD004288A
:1046B0000CD001259DE7072323769AE70C23237668
:1046C000032596E705232376012592E70B2323761E
:1046D00002258EE703790022114600F0BEF9D4F8D6
:1046E000C433E38108232376012582E70179FCF7AF
:1046F00033FC012805D0042807D005284CD001251B
:1047000077E70D232376002573E70B232376012516
:104710006FE70125009543790022114600F087F9E3
:10472000D4F8C433E3810A23237662E74179FCF7A6
:1047300013FC012805D0022807D0042809D0012540
:1047400057E70D232376002553E709232376012518
:104750004FE70B23237601254BE7437E0133DBB282
:104760004376022B03D801250576857041E7D0F802
:10477000D43306219847002565766179204600F0FC
:10478000DDF92179204600F0D9F92570022530E7BE
:1047900001252EE703252CE703252AE703780A885D
:1047A00013440B800378184470472DE9F04182B020
:1047B0000C460B7803704B7843708B78C97843EACA
:1047C000012343802379037163794371A379837152
:1047D000E379C371237A0372092A44D90546092370
:1047E000ADF806300026012E3DD86A88BDF80630A7
:1047F0009A4238D90DF106012046FFF7CFFF044653
:104800004378042BEFD1B0461A2006FB00F00830A5
:10481000284421460230FFF799FE00271A2303FBA4
:1048200008539B7BBB421BD96A88BDF806309A426D
:1048300016D90DF106012046FFF7B0FF0446437874
:10484000052BEBD101371A2000FB08F000EBC70065
:104850000830284421460430FFF78BFEFFB2DDE725
:104860000136F6B2BFE702B0BDE8F08110B50446EC
:104870008078012803D0022808D0012010BDA16053
:10488000A281012323760223A370F7E72046FFF7D6
:1048900099FE30B1032804D00228EFD10123A37080
:1048A000ECE70123A37000232376E7E708B58E46E3
:1048B00094461946BDF808208378012B02D0FFF7F3
:1048C000D5FF08BD6EF07F0E80F810E0062343741C
:1048D000A0F812C00CF47F4CBCF5407F03D000233D
:1048E0008382C282EBE740F209438382F9E7F0B5A5
:1048F00083B0044600F58E760D46009133464FF4A2
:1049000080720021FFF7D2FF074610B1384603B08E
:10491000F0BD2A46314604F22630FFF7EBFDF5E7FD
:10492000F0B583B004460D4600F11C0600913346F5
:104930004FF400720021FFF7B9FF074610B1384667
:1049400003B0F0BD2A46314604F54E70FFF72DFF47
:10495000F5E7F0B583B016461D4600F58E7400935A
:10496000234641F440720021FFF7A0FF074610B133
:10497000384603B0F0BD2A4631462046FFF709FE0F
:10498000F6E708B58378012B04D000221146FFF723
:104990006DFF08BD002303740522427441828382A7
:1049A000C382F2E708B58378012B04D000221146B8
:1049B000FFF75CFF08BD00230374092242744182A3
:1049C0008382C382F2E708B58378012B04D00022EA
:1049D0001146FFF74BFF08BD002303740322427406
:1049E00041828382C382F2E708B58378012B04D029
:1049F00000221146FFF73AFF08BD0223037401238A
:104A00004374002343828182C382F1E710B584B0EE
:104A10000B4611460024039408220292019300944D
:104A200023462246FCF702FB204604B010BD30B5F9
:104A300085B00C4619469DF8203090F81D5305B1FD
:104A400000230393029201940123009300231A464A
:104A5000FCF7ECFA002005B030BD30B585B00D464E
:104A600019460024039402920195012200922346E4
:104A7000FCF7DCFA204605B030BD30B585B00C46F9
:104A800019469DF8203090F81D5305B1002303937B
:104A9000029201940123009302230022FCF7C6FA3C
:104AA000002005B030BD30B585B00D461946002454
:104AB000039402920195012200920223FCF7B6FAB8
:104AC000204605B030BD00230A2B0CD803F1E002CC
:104AD00000EB8202526812F4004F02D00133DBB2C5
:104AE000F2E798B270474FF6FF70704710B584B088
:104AF000BDF8204002949DF81C4001949DF8184098
:104B00000094FCF778FA002004B010BD08B5FCF75B
:104B100085FA002008BD38B504460D46FFF7D3FFDF
:104B20004FF6FF73984207D000F00F0345F400459D
:104B3000E03304EB83035D60C0B238BD0A2906D8B8
:104B4000E03100EB81004368C3F30E0343600020B3
:104B500070470020704708B5212202742022427459
:104B60000022428282820722C282FFF77FFE08BDB6
:104B700008B5A1220274212242740022428282825C
:104B80000722C282FFF772FE08BD38B50446D0F88E
:104B90007C33D9694031FFF7EBFF054620B9D4F8E3
:104BA000D433022120469847284638BD38B50446FC
:104BB000D0F87C33DD69297879B9297BB1B9697B73
:104BC000F1B9D4F87C33D86928B100F017FAD4F8D9
:104BD0007C330022DA61002038BDFFF797FF297887
:104BE0002046FFF7ABFF00232B70E6E72046FFF7D8
:104BF0008DFF297B2046FFF7A1FF00232B73DEE703
:104C00002046FFF783FF697B2046FFF797FF0023CD
:104C10006B73D6E7F0B585B0044601230222114636
:104C2000FFF7C5FA012800F2AE800646014620468D
:104C3000FFF7B3FA0746002840F0A980D4F87C5368
:104C4000502000F0D3F9E861D4F87C33DD69002D01
:104C500000F09F8050220021284600F0D7F91A2347
:104C600003FB064393F84E2393F94E33002B72DB7C
:104C700069782046FFF74FFF014628706A786B89F4
:104C800002930323019394F81D33009394F81C338B
:104C90002046FFF72BFF002229782046FCF770F909
:104CA00000231A460A212046FFF781FA012872D80C
:104CB0001A2303FB004393F84E2393F94E33002B42
:104CC00051DBAA731A2303FB0043B3F850332B8341
:104CD0001A2303FB004393F8562393F95633002B12
:104CE00049DBAA731A2303FB0040B0F858332B8327
:104CF000A97B2046FFF70FFF6873E97B2046FFF78B
:104D00000AFF2873AA7B697B2B8B029302260196EC
:104D100094F81D33009394F81C332046FFF7E6FE09
:104D2000EA7B297B6B8B0293019694F81D330093E9
:104D300094F81C332046FFF7D9FE002685F84C6016
:104D40003246697B2046FCF71BF93246297B204618
:104D5000FCF716F918E06A701A2000FB0646B6F850
:104D600050336B8184E7EA731A2303FB0043B3F8E3
:104D700050336B83ACE7EA731A2303FB0040B0F8AF
:104D800058336B83B4E70227384605B0F0BD0227DD
:104D9000FAE70227F8E70227F6E7704730B583B055
:104DA0000546D0F87C33DC6994F84D30012B03D0F4
:104DB000022B19D003B030BD606A228B90420AD911
:104DC000637BE169012000902846FFF756FE02232D
:104DD00084F84D30EEE7637BE1690122009282B2F4
:104DE0002846FFF74AFEF2E7617BFCF7B5F8012899
:104DF00005D00228DED1012384F84D30DAE7636A5A
:104E0000228B93420AD99B1A6362E3691344E361DC
:104E1000636A33B1012384F84D30CBE7002363622A
:104E2000F6E7002384F84D302846FFF7B6FFC1E7C8
:104E3000704738B50446D0F87C33DD6995F84E30BC
:104E4000032B02D0042B09D038BD2B7B6A8B296A37
:104E5000FFF729FE042385F84E30F5E7297BFCF7A0
:104E60007BF80128F0D1297B2046FCF76FF8AB6A6C
:104E700083420BD06A8B824208D21B1AAB622B6A28
:104E800018442862032385F84E30DDE7002385F8B7
:104E90004E302046FFF7CCFFD6E7704770B504468A
:104EA000D0F87C33DE6996F84C50042D04D8DFE846
:104EB00005F03F0513394100012539E0B16CFFF7DA
:104EC0004AFE18B9022386F84C3031E001283AD066
:104ED000042386F84C302BE006F14001FFF748FE32
:104EE0000546C0B9002386F84C30736C23F07F422E
:104EF000B16C4B6823F07F439A4201D0012517E043
:104F0000326C0B689A4201D0012511E02046FFF770
:104F1000C4FF01250CE001280AD0042386F84C3098
:104F2000012505E0FFF73AFF2046FFF782FF012544
:104F3000284670BD0021FFF757FD30B9002386F8E1
:104F40004C300125F4E70546F2E70125F0E70000C3
:104F5000DFF834D00D480E490E4A002302E0D45841
:104F6000C4500433C4188C42F9D30B4A0B4C0023B1
:104F700001E013600432A242FBD3FEF75FFF00F0B2
:104F800011F8FBF751FD70470000022000000020DF
:104F900090000020085900089000002060090020BF
:104FA000FEE7000070B50D4D0D4C641BA4100026EB
:104FB000A64209D10B4D0C4C00F068FC641BA410F8
:104FC0000026A64205D170BD55F8043B984701362E
:104FD000EEE755F8043B98470136F2E70059000820
:104FE000005900080059000804590008024B014606
:104FF000186800F05FB800BF2C000020024B01468B
:10500000186800F00BB800BF2C00002002440346D3
:10501000934200D1704703F8011BF9E737B5002927
:1050200044D051F8043C0190002BA1F10404B8BF16
:10503000E41800F0C9F81E4A0198136833B9636098
:10504000146003B0BDE8304000F0C4B8A34208D9F2
:10505000256861198B4201BF19685B684919216095
:10506000EDE71A465B680BB1A342FAD911685518EF
:10507000A5420BD1246821445418A3421160E0D109
:105080001C685B68536021441160DAE702D90C2385
:105090000360D6E7256861198B4204BF19685B6815
:1050A000636004BF491921605460CAE703B030BD92
:1050B0004C090020F8B5CD1C25F0030508350C2D52
:1050C00038BF0C25002D064601DBA94203D90C236D
:1050D00033600020F8BD00F077F821490A681446D3
:1050E0009CB9204F3B6823B92146304600F03CF87C
:1050F00038602946304600F037F8431C23D10C2392
:105100003360304600F066F8E3E723685B1B17D492
:105110000B2B03D923601C44256004E06368A24282
:105120000CBF0B605360304600F054F804F10B00E4
:10513000231D20F00700C21ACCD01B1AA350C9E7C8
:1051400022466468CCE7C41C24F00304A042E3D0E8
:10515000211A304600F008F80130DDD1CFE700BF5A
:105160004C0900205009002038B5064D00230446A4
:1051700008462B6000F07CFB431C02D12B6803B176
:10518000236038BD540900200EB400B59CB01DAB9F
:10519000029006906FF00041094807910491094977
:1051A00053F8042B05910068019302A900F074F8EC
:1051B000029B00221A701CB05DF804EB03B070472C
:1051C0002C0000200802FFFF014800F0F9BA00BFE0
:1051D00058090020014800F0F4BA00BF5809002027
:1051E0002DE9F0478E689E4282460C4690461F4647
:1051F00038D88A8912F4906F32D025680969A5EBF6
:105200000109656905EB450505EBD57501334B448F
:105210006D109D4238BF1D46530531D52946FFF715
:1052200049FF064650B90C23CAF80030A38943F061
:105230004003A3814FF0FF30BDE8F08721694A4663
:1052400000F0C0FAA38923F4906343F08003A381A4
:10525000266165614E44A5EB09052660A5603E46C2
:10526000BE4200D93E4620683246414600F0B8FAB8
:10527000A3689B1BA3602368334423600020DBE703
:105280002A4600F0C7FA06460028E1D121695046B7
:10529000FFF7C4FEC7E700002DE9F04F98468B8961
:1052A0001B069DB007460D4614460ED50B6963B923
:1052B0004021FFF7FFFE2860286120B90C233B60E6
:1052C0004FF0FF30D1E040236B610023099320238E
:1052D0008DF82930CDF80C803023DFF8A8818DF8C7
:1052E0002A304FF0010923469A4613F8012B0AB1E0
:1052F000252AF9D1BAEB040B0BD05B46224629468E
:105300003846FFF76DFF013000F0AA80099A5A4431
:1053100009929AF80030002B00F0A28000234FF091
:10532000FF32CDE905230AF1010A049307938DF8B2
:1053300053301A935446052214F8011B5148FAF7CA
:105340004FFF049AD8B9D00644BF20238DF85330BC
:10535000110744BF2B238DF853309AF800302A2BC5
:1053600015D0079A544600204FF00A0C214611F838
:10537000013B303B092B4ED9B0B1079214E0A0EBB2
:10538000080309FA03F313430493A246D2E7039BED
:10539000191D1B680391002BBBBF5B4242F0020248
:1053A00007930793B8BF049223782E2B0CD1637810
:1053B0002A2B35D1039B1A1D1B680392002BB8BF03
:1053C0004FF0FF3302340593DFF8C8A021780322A1
:1053D0005046FAF705FF40B14023A0EB0A0003FA5C
:1053E00000F0049B03430134049314F8011B264886
:1053F0008DF828100622FAF7F3FE002838D0234B48
:105400001BBB039B073323F0070308330393099B5C
:105410003344099367E70CFB02320C460120A5E7F1
:1054200000230134059319464FF00A0C204610F86A
:10543000012B303A092A03D9002BC5D00591C3E7C7
:105440000CFB012104460123F0E703AB00932A463D
:105450000F4B04A93846AFF30080421C0646D6D154
:10546000AB895B063FF52CAF09981DB0BDE8F08F06
:1054700003AB00932A46064B04A9384600F07AF89D
:10548000EBE700BFC4580008CE5800080000000039
:10549000E1510008CA5800082DE9F0471646994620
:1054A0008A680B69DDF820809342B8BF13463360E9
:1054B00091F8432007460C460AB101333360236854
:1054C000990642BF336802333360256815F006053C
:1054D00006D104F1190AE36832689B1AAB4226DC54
:1054E00094F84320131E226818BF012392062BD480
:1054F00004F1430249463846C04701301ED02368B4
:10550000E568326803F00603042B08BFAD1AA368F0
:1055100022690CBF25EAE57500259342C4BF9B1A9A
:10552000ED1800261A34B5421AD1002008E00123F4
:10553000524649463846C047013003D14FF0FF304C
:10554000BDE8F0870135C6E7E1185A1C302081F824
:105550004300224494F8451082F843100233C7E711
:105560000123224649463846C0470130E6D001367D
:10557000D9E700002DE9FF470F7E0C9D782F91465B
:1055800080460C469A4601F1430207D8622F0AD89A
:10559000002F00F0D880582F00F0A38004F14205BE
:1055A00084F842703AE0A7F16303152BF6D801A105
:1055B00051F823F00D560008215600089D550008AB
:1055C0009D5500089D5500089D550008215600086E
:1055D0009D5500089D5500089D5500089D550008E3
:1055E0002D570008515600080F5700089D55000818
:1055F0009D5500084F5700089D550008515600085A
:105600009D5500089D550008175700082B681A1D66
:105610001B682A6004F1420584F842300123A3E0AC
:1056200020682968060601F104030AD50E682B607C
:10563000002E03DA2D23764284F843305E480A2395
:1056400019E00E682B6010F0400F18BF36B2EFE77C
:105650002B682068191D2960010601D51E6802E02B
:105660004606FBD51E8854486F2F0CBF08230A231B
:10567000002184F843106568A560002DA2BF216851
:1056800021F0040121600EB9002D4DD01546B6FB66
:10569000F3F103FB1167C75D05F8017D3746BB4297
:1056A0000E46F4D9082B0BD12368DE0708D52369F1
:1056B00061689942DEBF302305F8013C05F1FF35F2
:1056C000521B2261CDF800A04B4603AA214640465A
:1056D000FFF7E2FE01304CD14FF0FF3004B0BDE8DF
:1056E000F087354881F845702968236851F8046BC4
:1056F00029601D0614D5DF0744BF43F02003236053
:105700001EB9236823F0200323601023B0E7236829
:1057100043F0200323607823284884F84530E3E7EA
:10572000590648BFB6B2E6E71546BBE72B682668C0
:105730006169181D286035061B6801D5196002E0F3
:105740007006FBD51980002323611546BAE72B6844
:105750001A1D2A601D68626800212846FAF740FD7C
:1057600008B1401B606063682361002384F8433004
:10577000A8E723692A4649464046D0470130ABD0C6
:1057800023689B0713D4E068039B9842B8BF184670
:10579000A4E70123324649464046D04701309BD01A
:1057A0000135E36803995B1AAB42F2DCEBE70025B5
:1057B00004F11906F5E700BFD5580008E6580008BF
:1057C000704770470A44914200F1FF3300D170479F
:1057D00010B511F8014B03F8014F9142F9D110BDFA
:1057E000884210B501EB020402D98442234607D84F
:1057F000431EA14208D011F8012B03F8012FF8E74E
:10580000024401468A4200D110BD13F8014D02F84E
:10581000014DF7E7F8B5074614460E4621B9BDE835
:10582000F8401146FFF746BC22B9FFF7F7FB2546C3
:105830002846F8BD00F014F8A0420FD221463846A1
:10584000FFF738FC05460028F2D031462246FFF724
:10585000B9FF31463846FFF7E1FBE9E73546E7E7B0
:1058600051F8043C181F002BBCBF0B58C0187047E0
:10587000044A05491368002B08BF0B461844106002
:10588000184670475C09002060090020F8B500BF89
:10589000F8BC08BC9E467047F8B500BFF8BC08BC11
:0458A0009E46704769
:1058A4002564000000000000000000000102030461
:1058B40006070809000000000102030443444300F2
:1058C400232D302B2000686C4C00656667454647E5
:1058D4000030313233343536373839414243444568
:1058E40046003031323334353637383961626364D7
:0458F40065660000E5
:0858F800B8A9FF7F01000000C8
:04590000B5010008E5
:045904009101000805
:1059080001000000100000000024F400C058000846
:1059180002000000154C0008AD4B00088B4B000836
:105928009D4E0008534B0008000000003000002086
:10593800000000000000000000000000000000005F
:10594800000000000000000000000000000000004F
:10595800000000000000000000000000000000003F
:10596800000000000000000000000000000000002F
:10597800000000000000000000000000000000001F
:10598800000000000000000000000000000000000F
:0400000508004F514F
:00000001FF
